{
  "contractName": "Global",
  "abi": [
    {
      "inputs": [
        {
          "internalType": "contract Passport",
          "name": "passportAddress",
          "type": "address"
        }
      ],
      "payable": false,
      "stateMutability": "nonpayable",
      "type": "constructor"
    },
    {
      "anonymous": false,
      "inputs": [
        {
          "indexed": false,
          "internalType": "string",
          "name": "UUID",
          "type": "string"
        },
        {
          "indexed": false,
          "internalType": "address",
          "name": "country",
          "type": "address"
        }
      ],
      "name": "arrival",
      "type": "event"
    },
    {
      "anonymous": false,
      "inputs": [
        {
          "indexed": false,
          "internalType": "string",
          "name": "UUID",
          "type": "string"
        },
        {
          "indexed": false,
          "internalType": "address",
          "name": "country",
          "type": "address"
        }
      ],
      "name": "departure",
      "type": "event"
    },
    {
      "anonymous": false,
      "inputs": [
        {
          "indexed": false,
          "internalType": "string",
          "name": "UUID",
          "type": "string"
        },
        {
          "indexed": false,
          "internalType": "address",
          "name": "country",
          "type": "address"
        }
      ],
      "name": "rejection",
      "type": "event"
    },
    {
      "anonymous": false,
      "inputs": [
        {
          "indexed": false,
          "internalType": "string",
          "name": "name",
          "type": "string"
        },
        {
          "indexed": false,
          "internalType": "address",
          "name": "nation",
          "type": "address"
        },
        {
          "indexed": false,
          "internalType": "bool",
          "name": "isActive",
          "type": "bool"
        }
      ],
      "name": "workerRegistered",
      "type": "event"
    },
    {
      "constant": true,
      "inputs": [],
      "name": "_globalOwner",
      "outputs": [
        {
          "internalType": "address",
          "name": "",
          "type": "address"
        }
      ],
      "payable": false,
      "stateMutability": "view",
      "type": "function"
    },
    {
      "constant": false,
      "inputs": [
        {
          "internalType": "string",
          "name": "name",
          "type": "string"
        },
        {
          "internalType": "address",
          "name": "workerAddress",
          "type": "address"
        }
      ],
      "name": "addNewWorker",
      "outputs": [],
      "payable": false,
      "stateMutability": "nonpayable",
      "type": "function"
    },
    {
      "constant": false,
      "inputs": [
        {
          "internalType": "address",
          "name": "workerAddress",
          "type": "address"
        },
        {
          "internalType": "string",
          "name": "name",
          "type": "string"
        },
        {
          "internalType": "bool",
          "name": "status",
          "type": "bool"
        }
      ],
      "name": "updateWorkerStatus",
      "outputs": [],
      "payable": false,
      "stateMutability": "nonpayable",
      "type": "function"
    },
    {
      "constant": false,
      "inputs": [
        {
          "internalType": "string",
          "name": "UUID",
          "type": "string"
        },
        {
          "internalType": "address[]",
          "name": "travelList",
          "type": "address[]"
        }
      ],
      "name": "travelerDeparture",
      "outputs": [],
      "payable": false,
      "stateMutability": "nonpayable",
      "type": "function"
    },
    {
      "constant": false,
      "inputs": [
        {
          "internalType": "string",
          "name": "UUID",
          "type": "string"
        }
      ],
      "name": "acceptTraveler",
      "outputs": [],
      "payable": false,
      "stateMutability": "nonpayable",
      "type": "function"
    },
    {
      "constant": false,
      "inputs": [
        {
          "internalType": "string",
          "name": "UUID",
          "type": "string"
        }
      ],
      "name": "rejectTraveler",
      "outputs": [],
      "payable": false,
      "stateMutability": "nonpayable",
      "type": "function"
    },
    {
      "constant": true,
      "inputs": [
        {
          "internalType": "address",
          "name": "workeraddress",
          "type": "address"
        }
      ],
      "name": "checkActiveWorker",
      "outputs": [
        {
          "internalType": "bool",
          "name": "",
          "type": "bool"
        }
      ],
      "payable": false,
      "stateMutability": "view",
      "type": "function"
    },
    {
      "constant": true,
      "inputs": [
        {
          "internalType": "string",
          "name": "UUID",
          "type": "string"
        }
      ],
      "name": "checkActiveTransfer",
      "outputs": [
        {
          "internalType": "bool",
          "name": "",
          "type": "bool"
        }
      ],
      "payable": false,
      "stateMutability": "view",
      "type": "function"
    }
  ],
  "bytecode": "0x6080604052336000806101000a81548173ffffffffffffffffffffffffffffffffffffffff021916908373ffffffffffffffffffffffffffffffffffffffff16021790555034801561005057600080fd5b50604051611c10380380611c108339818101604052602081101561007357600080fd5b810190808051906020019092919050505080600160006101000a81548173ffffffffffffffffffffffffffffffffffffffff021916908373ffffffffffffffffffffffffffffffffffffffff16021790555050611b3b806100d56000396000f3fe608060405234801561001057600080fd5b50600436106100885760003560e01c806397ddf2c31161005b57806397ddf2c314610366578063a1781ea514610439578063bcf012c2146104f4578063eb9d77601461064357610088565b8063207c3f481461008d5780634ca93a38146100e95780636302215d146101c45780638ffab2c8146102ab575b600080fd5b6100cf600480360360208110156100a357600080fd5b81019080803573ffffffffffffffffffffffffffffffffffffffff16906020019092919050505061068d565b604051808215151515815260200191505060405180910390f35b6101c2600480360360408110156100ff57600080fd5b810190808035906020019064010000000081111561011c57600080fd5b82018360208201111561012e57600080fd5b8035906020019184600183028401116401000000008311171561015057600080fd5b91908080601f016020809104026020016040519081016040528093929190818152602001838380828437600081840152601f19601f820116905080830192505050505050509192919290803573ffffffffffffffffffffffffffffffffffffffff16906020019092919050505061078b565b005b6102a9600480360360608110156101da57600080fd5b81019080803573ffffffffffffffffffffffffffffffffffffffff1690602001909291908035906020019064010000000081111561021757600080fd5b82018360208201111561022957600080fd5b8035906020019184600183028401116401000000008311171561024b57600080fd5b91908080601f016020809104026020016040519081016040528093929190818152602001838380828437600081840152601f19601f820116905080830192505050505050509192919290803515159060200190929190505050610a01565b005b610364600480360360208110156102c157600080fd5b81019080803590602001906401000000008111156102de57600080fd5b8201836020820111156102f057600080fd5b8035906020019184600183028401116401000000008311171561031257600080fd5b91908080601f016020809104026020016040519081016040528093929190818152602001838380828437600081840152601f19601f820116905080830192505050505050509192919290505050610c21565b005b61041f6004803603602081101561037c57600080fd5b810190808035906020019064010000000081111561039957600080fd5b8201836020820111156103ab57600080fd5b803590602001918460018302840111640100000000831117156103cd57600080fd5b91908080601f016020809104026020016040519081016040528093929190818152602001838380828437600081840152601f19601f820116905080830192505050505050509192919290505050610dfd565b604051808215151515815260200191505060405180910390f35b6104f26004803603602081101561044f57600080fd5b810190808035906020019064010000000081111561046c57600080fd5b82018360208201111561047e57600080fd5b803590602001918460018302840111640100000000831117156104a057600080fd5b91908080601f016020809104026020016040519081016040528093929190818152602001838380828437600081840152601f19601f820116905080830192505050505050509192919290505050610f25565b005b6106416004803603604081101561050a57600080fd5b810190808035906020019064010000000081111561052757600080fd5b82018360208201111561053957600080fd5b8035906020019184600183028401116401000000008311171561055b57600080fd5b91908080601f016020809104026020016040519081016040528093929190818152602001838380828437600081840152601f19601f820116905080830192505050505050509192919290803590602001906401000000008111156105be57600080fd5b8201836020820111156105d057600080fd5b803590602001918460208302840111640100000000831117156105f257600080fd5b919080806020026020016040519081016040528093929190818152602001838360200280828437600081840152601f19601f8201169050808301925050505050505091929192905050506112d1565b005b61064b61155f565b604051808273ffffffffffffffffffffffffffffffffffffffff1673ffffffffffffffffffffffffffffffffffffffff16815260200191505060405180910390f35b60008060009054906101000a900473ffffffffffffffffffffffffffffffffffffffff1673ffffffffffffffffffffffffffffffffffffffff163373ffffffffffffffffffffffffffffffffffffffff1614610734576040517f08c379a0000000000000000000000000000000000000000000000000000000008152600401808060200182810382526025815260200180611aaf6025913960400191505060405180910390fd5b600260008373ffffffffffffffffffffffffffffffffffffffff1673ffffffffffffffffffffffffffffffffffffffff16815260200190815260200160002060010160149054906101000a900460ff169050919050565b336001151561079982611584565b15151461080e576040517f08c379a00000000000000000000000000000000000000000000000000000000081526004018080602001828103825260048152602001807f4661696c0000000000000000000000000000000000000000000000000000000081525060200191505060405180910390fd5b6108166117c0565b60405180606001604052808581526020013373ffffffffffffffffffffffffffffffffffffffff16815260200160011515815250905080600260008573ffffffffffffffffffffffffffffffffffffffff1673ffffffffffffffffffffffffffffffffffffffff16815260200190815260200160002060008201518160000190805190602001906108a89291906117f9565b5060208201518160010160006101000a81548173ffffffffffffffffffffffffffffffffffffffff021916908373ffffffffffffffffffffffffffffffffffffffff16021790555060408201518160010160146101000a81548160ff0219169083151502179055509050507f83f883185f59509fbf30a856b57338aaa8255e7c45534d86970944a02b2673af81600001518260200151836040015160405180806020018473ffffffffffffffffffffffffffffffffffffffff1673ffffffffffffffffffffffffffffffffffffffff16815260200183151515158152602001828103825285818151815260200191508051906020019080838360005b838110156109bf5780820151818401526020810190506109a4565b50505050905090810190601f1680156109ec5780820380516001836020036101000a031916815260200191505b5094505050505060405180910390a150505050565b3360011515610a0f82611584565b151514610a84576040517f08c379a00000000000000000000000000000000000000000000000000000000081526004018080602001828103825260048152602001807f4661696c0000000000000000000000000000000000000000000000000000000081525060200191505060405180910390fd5b3373ffffffffffffffffffffffffffffffffffffffff16600260008673ffffffffffffffffffffffffffffffffffffffff1673ffffffffffffffffffffffffffffffffffffffff16815260200190815260200160002060010160009054906101000a900473ffffffffffffffffffffffffffffffffffffffff1673ffffffffffffffffffffffffffffffffffffffff1614610b6a576040517f08c379a0000000000000000000000000000000000000000000000000000000008152600401808060200182810382526033815260200180611ad46033913960400191505060405180910390fd5b82600260008673ffffffffffffffffffffffffffffffffffffffff1673ffffffffffffffffffffffffffffffffffffffff1681526020019081526020016000206000019080519060200190610bc0929190611879565b5081600260008673ffffffffffffffffffffffffffffffffffffffff1673ffffffffffffffffffffffffffffffffffffffff16815260200190815260200160002060010160146101000a81548160ff02191690831515021790555050505050565b3360011515610c2f82611584565b151514610ca4576040517f08c379a00000000000000000000000000000000000000000000000000000000081526004018080602001828103825260048152602001807f4661696c0000000000000000000000000000000000000000000000000000000081525060200191505060405180910390fd5b60006003836040518082805190602001908083835b60208310610cdc5780518252602082019150602081019050602083039250610cb9565b6001836020036101000a038019825116818451168082178552505050505050905001915050908152602001604051809103902060020160006101000a81548160ff0219169083151502179055507fcf9fb33f3ff5c6c3d33e905d56bfc9c0e363ff5ad5a383851e7d836cc1beb654823360405180806020018373ffffffffffffffffffffffffffffffffffffffff1673ffffffffffffffffffffffffffffffffffffffff168152602001828103825284818151815260200191508051906020019080838360005b83811015610dbe578082015181840152602081019050610da3565b50505050905090810190601f168015610deb5780820380516001836020036101000a031916815260200191505b50935050505060405180910390a15050565b60008060009054906101000a900473ffffffffffffffffffffffffffffffffffffffff1673ffffffffffffffffffffffffffffffffffffffff163373ffffffffffffffffffffffffffffffffffffffff1614610ea4576040517f08c379a0000000000000000000000000000000000000000000000000000000008152600401808060200182810382526025815260200180611aaf6025913960400191505060405180910390fd5b6003826040518082805190602001908083835b60208310610eda5780518252602082019150602081019050602083039250610eb7565b6001836020036101000a038019825116818451168082178552505050505050905001915050908152602001604051809103902060020160009054906101000a900460ff169050919050565b3360011515610f3382611584565b151514610fa8576040517f08c379a00000000000000000000000000000000000000000000000000000000081526004018080602001828103825260048152602001807f4661696c0000000000000000000000000000000000000000000000000000000081525060200191505060405180910390fd5b60006003836040518082805190602001908083835b60208310610fe05780518252602082019150602081019050602083039250610fbd565b6001836020036101000a038019825116818451168082178552505050505050905001915050908152602001604051809103902060000160009054906101000a900473ffffffffffffffffffffffffffffffffffffffff169050600260003373ffffffffffffffffffffffffffffffffffffffff1673ffffffffffffffffffffffffffffffffffffffff16815260200190815260200160002060010160009054906101000a900473ffffffffffffffffffffffffffffffffffffffff166003846040518082805190602001908083835b602083106110d257805182526020820191506020810190506020830392506110af565b6001836020036101000a038019825116818451168082178552505050505050905001915050908152602001604051809103902060000160006101000a81548173ffffffffffffffffffffffffffffffffffffffff021916908373ffffffffffffffffffffffffffffffffffffffff16021790555060405180602001604052808273ffffffffffffffffffffffffffffffffffffffff1673ffffffffffffffffffffffffffffffffffffffff168152506003846040518082805190602001908083835b602083106111b75780518252602082019150602081019050602083039250611194565b6001836020036101000a03801982511681845116808217855250505050505090500191505090815260200160405180910390206001019060016111fb9291906118f9565b507fc363fd47983ae09627a8590268ead77e40979a5091a1139651a4a620f715c854833360405180806020018373ffffffffffffffffffffffffffffffffffffffff1673ffffffffffffffffffffffffffffffffffffffff168152602001828103825284818151815260200191508051906020019080838360005b83811015611291578082015181840152602081019050611276565b50505050905090810190601f1680156112be5780820380516001836020036101000a031916815260200191505b50935050505060405180910390a1505050565b33600115156112df82611584565b151514611354576040517f08c379a00000000000000000000000000000000000000000000000000000000081526004018080602001828103825260048152602001807f4661696c0000000000000000000000000000000000000000000000000000000081525060200191505060405180910390fd5b6060829050611361611983565b60405180606001604052803373ffffffffffffffffffffffffffffffffffffffff168152602001838152602001600115158152509050806003866040518082805190602001908083835b602083106113ce57805182526020820191506020810190506020830392506113ab565b6001836020036101000a038019825116818451168082178552505050505050905001915050908152602001604051809103902060008201518160000160006101000a81548173ffffffffffffffffffffffffffffffffffffffff021916908373ffffffffffffffffffffffffffffffffffffffff16021790555060208201518160010190805190602001906114649291906119bc565b5060408201518160020160006101000a81548160ff0219169083151502179055509050507fe0d7d6980dadd7c09674a9bcfdcf0bae46941e252935b335b953bdb29874d3d4853360405180806020018373ffffffffffffffffffffffffffffffffffffffff1673ffffffffffffffffffffffffffffffffffffffff168152602001828103825284818151815260200191508051906020019080838360005b8381101561151d578082015181840152602081019050611502565b50505050905090810190601f16801561154a5780820380516001836020036101000a031916815260200191505b50935050505060405180910390a15050505050565b6000809054906101000a900473ffffffffffffffffffffffffffffffffffffffff1681565b60006060600160009054906101000a900473ffffffffffffffffffffffffffffffffffffffff1673ffffffffffffffffffffffffffffffffffffffff1663cae884b7846040518263ffffffff1660e01b8152600401808273ffffffffffffffffffffffffffffffffffffffff1673ffffffffffffffffffffffffffffffffffffffff16815260200191505060006040518083038186803b15801561162757600080fd5b505afa15801561163b573d6000803e3d6000fd5b505050506040513d6000823e3d601f19601f82011682018060405250602081101561166557600080fd5b810190808051604051939291908464010000000082111561168557600080fd5b8382019150602082018581111561169b57600080fd5b82518660018202830111640100000000821117156116b857600080fd5b8083526020830192505050908051906020019080838360005b838110156116ec5780820151818401526020810190506116d1565b50505050905090810190601f1680156117195780820380516001836020036101000a031916815260200191505b50604052505050905060405160200180600001905060405160208183030381529060405280519060200120816040516020018082805190602001908083835b6020831061177b5780518252602082019150602081019050602083039250611758565b6001836020036101000a038019825116818451168082178552505050505050905001915050604051602081830303815290604052805190602001201415915050919050565b604051806060016040528060608152602001600073ffffffffffffffffffffffffffffffffffffffff1681526020016000151581525090565b828054600181600116156101000203166002900490600052602060002090601f016020900481019282601f1061183a57805160ff1916838001178555611868565b82800160010185558215611868579182015b8281111561186757825182559160200191906001019061184c565b5b5090506118759190611a46565b5090565b828054600181600116156101000203166002900490600052602060002090601f016020900481019282601f106118ba57805160ff19168380011785556118e8565b828001600101855582156118e8579182015b828111156118e75782518255916020019190600101906118cc565b5b5090506118f59190611a46565b5090565b828054828255906000526020600020908101928215611972579160200282015b828111156119715782518260006101000a81548173ffffffffffffffffffffffffffffffffffffffff021916908373ffffffffffffffffffffffffffffffffffffffff16021790555091602001919060010190611919565b5b50905061197f9190611a6b565b5090565b6040518060600160405280600073ffffffffffffffffffffffffffffffffffffffff168152602001606081526020016000151581525090565b828054828255906000526020600020908101928215611a35579160200282015b82811115611a345782518260006101000a81548173ffffffffffffffffffffffffffffffffffffffff021916908373ffffffffffffffffffffffffffffffffffffffff160217905550916020019190600101906119dc565b5b509050611a429190611a6b565b5090565b611a6891905b80821115611a64576000816000905550600101611a4c565b5090565b90565b611aab91905b80821115611aa757600081816101000a81549073ffffffffffffffffffffffffffffffffffffffff021916905550600101611a71565b5090565b9056fe5b4572726f725d205468697320697320706c6174666f726d206f776e657220616374696f6e43616e6e6f742075706461746520737461747573206f6620776f726b65722066726f6d20616e6f7468657220636f756e747279a265627a7a72315820d6ccdb05c1ed5cb6911e673b376140d933bae963ba265fbfb2d486b7e7b499cc64736f6c63430005100032",
  "source": "pragma solidity ^0.5.0;\r\nimport \"./Passport.sol\";\r\n\r\n\r\ncontract Global {\r\n    address public _globalOwner = msg.sender;\r\n    Passport passport;\r\n\r\n    constructor(Passport passportAddress) public {\r\n        passport = passportAddress;\r\n    }\r\n\r\n    //Maps address of worker accounts\r\n    mapping(address => Worker) workers;\r\n\r\n    //Maps UUID of passports to trasnfer Records\r\n    mapping(string => TransferRecord) transferAuthority;\r\n\r\n    event workerRegistered(string name, address nation, bool isActive);\r\n    //departure and arrival, emits passport UUID and country posting the event\r\n    event departure(string UUID, address country);\r\n    event arrival(string UUID, address country);\r\n    event rejection(string UUID, address country);\r\n\r\n    //event debug(bool);\r\n\r\n    struct TransferRecord {\r\n        address prevOwner;\r\n        address[] newOwner;\r\n        bool isPending;\r\n    }\r\n\r\n    struct Worker {\r\n        string name;\r\n        address nationality; //Linked to Country minter\r\n        bool isActive;\r\n    }\r\n\r\n    function addNewWorker(string memory name, address workerAddress)\r\n        public\r\n        onlyCountries(msg.sender)\r\n    {\r\n        //bool test = passport.checkVerifiedCountry(msg.sender);\r\n        //emit debug(test);\r\n\r\n        Worker memory newWorker = Worker(name, msg.sender, true);\r\n        workers[workerAddress] = newWorker;\r\n        emit workerRegistered(\r\n            newWorker.name,\r\n            newWorker.nationality,\r\n            newWorker.isActive\r\n        );\r\n    }\r\n\r\n    function updateWorkerStatus(\r\n        address workerAddress,\r\n        string memory name,\r\n        bool status\r\n    ) public onlyCountries(msg.sender) {\r\n        require(\r\n            workers[workerAddress].nationality == msg.sender,\r\n            \"Cannot update status of worker from another country\"\r\n        );\r\n        workers[workerAddress].name = name;\r\n        workers[workerAddress].isActive = status;\r\n    }\r\n\r\n    //Precondition: Date is in UNIX epoch seconds format\r\n    //PostCondition: Create a transfer Record, Add new travel record to passport\r\n    function travelerDeparture(string memory UUID, address[] memory travelList)\r\n        public\r\n        onlyCountries(msg.sender)\r\n    {\r\n        address[] memory travels = travelList;\r\n        TransferRecord memory newTransfer = TransferRecord(\r\n            msg.sender,\r\n            travels,\r\n            true\r\n        );\r\n        transferAuthority[UUID] = newTransfer;\r\n\r\n        // passport.addTravelRecord(UUID, \"EXIT\", block.timestamp);\r\n        emit departure(UUID, msg.sender);\r\n    }\r\n\r\n    //Precondition: Date is in UNIX epoch seconds format\r\n    //Postcondition: Freeze trasnfer record and add new travel record\r\n    function acceptTraveler(string memory UUID)\r\n        public\r\n        onlyCountries(msg.sender)\r\n    {\r\n        transferAuthority[UUID].isPending = false;\r\n\r\n        // passport.addTravelRecord(UUID, \"ENTER\", block.timestamp);\r\n        emit arrival(UUID, msg.sender);\r\n    }\r\n\r\n    //Precondition: transferRequest must exist\r\n    //PostCondition: Flip locations on transfer request\r\n    function rejectTraveler(string memory UUID)\r\n        public\r\n        onlyCountries(msg.sender)\r\n    {\r\n        address toLoc = transferAuthority[UUID].prevOwner;\r\n        transferAuthority[UUID].prevOwner = workers[msg.sender].nationality;\r\n        // address[] memory newList = ;\r\n        transferAuthority[UUID].newOwner = [toLoc];\r\n\r\n        emit rejection(UUID, msg.sender);\r\n    }\r\n\r\n    function checkActiveWorker(address workeraddress)\r\n        public\r\n        view\r\n        onlyOwner()\r\n        returns (bool)\r\n    {\r\n        return workers[workeraddress].isActive;\r\n    }\r\n\r\n    function checkActiveTransfer(string memory UUID)\r\n        public\r\n        view\r\n        onlyOwner()\r\n        returns (bool)\r\n    {\r\n        return transferAuthority[UUID].isPending;\r\n    }\r\n\r\n    function checkVerifiedCountry(address sender) internal returns (bool) {\r\n        string memory result = passport.viewRegisteredCountry(sender);\r\n        return\r\n            keccak256(abi.encodePacked((result))) !=\r\n            keccak256(abi.encodePacked((\"\")));\r\n    }\r\n\r\n    modifier onlyCountries(address sender) {\r\n        //   require(passport.checkOwner(msg.sender), \"[Error] This is a minter only action\");\r\n        require(checkVerifiedCountry(sender) == true, \"Fail\");\r\n        _;\r\n    }\r\n\r\n    modifier onlyWorker() {\r\n        require(\r\n            workers[msg.sender].isActive == true,\r\n            \"[Error] This is an active worker only action\"\r\n        );\r\n        _;\r\n    }\r\n\r\n    modifier onlyOwner() {\r\n        require(\r\n            msg.sender == _globalOwner,\r\n            \"[Error] This is platform owner action\"\r\n        );\r\n        _;\r\n    }\r\n}\r\n",
  "sourcePath": "C:\\Users\\Lim Shan Jing\\Desktop\\IS4302\\cryptyPassta\\src\\blockchain\\contracts\\Global.sol",
  "compiler": {
    "name": "solc",
    "version": "0.5.16+commit.9c3226ce.Emscripten.clang"
  },
  "schemaVersion": "3.0.23",
  "updatedAt": "2020-04-05T06:21:41.820Z",
  "networkType": "ethereum",
  "devdoc": {
    "methods": {}
  },
  "userdoc": {
    "methods": {}
  }
}