{
  "contractName": "Global",
  "abi": [
    {
      "constant": true,
      "inputs": [],
      "name": "_globalOwner",
      "outputs": [
        {
          "internalType": "address",
          "name": "",
          "type": "address"
        }
      ],
      "payable": false,
      "stateMutability": "view",
      "type": "function"
    },
    {
      "constant": false,
      "inputs": [
        {
          "internalType": "string",
          "name": "name",
          "type": "string"
        },
        {
          "internalType": "address",
          "name": "workerAddress",
          "type": "address"
        }
      ],
      "name": "addNewWorker",
      "outputs": [],
      "payable": false,
      "stateMutability": "nonpayable",
      "type": "function"
    },
    {
      "constant": false,
      "inputs": [
        {
          "internalType": "address",
          "name": "workerAddress",
          "type": "address"
        },
        {
          "internalType": "string",
          "name": "name",
          "type": "string"
        },
        {
          "internalType": "bool",
          "name": "status",
          "type": "bool"
        }
      ],
      "name": "updateWorkerStatus",
      "outputs": [],
      "payable": false,
      "stateMutability": "nonpayable",
      "type": "function"
    },
    {
      "constant": false,
      "inputs": [
        {
          "internalType": "string",
          "name": "UUID",
          "type": "string"
        },
        {
          "internalType": "address[]",
          "name": "travelList",
          "type": "address[]"
        }
      ],
      "name": "travelerDeparture",
      "outputs": [],
      "payable": false,
      "stateMutability": "nonpayable",
      "type": "function"
    },
    {
      "constant": false,
      "inputs": [
        {
          "internalType": "string",
          "name": "UUID",
          "type": "string"
        }
      ],
      "name": "acceptTraveler",
      "outputs": [],
      "payable": false,
      "stateMutability": "nonpayable",
      "type": "function"
    },
    {
      "constant": false,
      "inputs": [
        {
          "internalType": "string",
          "name": "UUID",
          "type": "string"
        }
      ],
      "name": "rejectTraveler",
      "outputs": [],
      "payable": false,
      "stateMutability": "nonpayable",
      "type": "function"
    },
    {
      "constant": false,
      "inputs": [
        {
          "internalType": "address",
          "name": "workeraddress",
          "type": "address"
        }
      ],
      "name": "checkActiveWorker",
      "outputs": [
        {
          "internalType": "bool",
          "name": "",
          "type": "bool"
        }
      ],
      "payable": false,
      "stateMutability": "nonpayable",
      "type": "function"
    },
    {
      "constant": false,
      "inputs": [
        {
          "internalType": "string",
          "name": "UUID",
          "type": "string"
        }
      ],
      "name": "checkActiveTransfer",
      "outputs": [
        {
          "internalType": "bool",
          "name": "",
          "type": "bool"
        }
      ],
      "payable": false,
      "stateMutability": "nonpayable",
      "type": "function"
    }
  ],
  "bytecode": "0x6080604052336000806101000a81548173ffffffffffffffffffffffffffffffffffffffff021916908373ffffffffffffffffffffffffffffffffffffffff16021790555034801561005057600080fd5b50611837806100606000396000f3fe608060405234801561001057600080fd5b50600436106100885760003560e01c806397ddf2c31161005b57806397ddf2c314610366578063a1781ea514610439578063bcf012c2146104f4578063eb9d77601461064357610088565b8063207c3f481461008d5780634ca93a38146100e95780636302215d146101c45780638ffab2c8146102ab575b600080fd5b6100cf600480360360208110156100a357600080fd5b81019080803573ffffffffffffffffffffffffffffffffffffffff16906020019092919050505061068d565b604051808215151515815260200191505060405180910390f35b6101c2600480360360408110156100ff57600080fd5b810190808035906020019064010000000081111561011c57600080fd5b82018360208201111561012e57600080fd5b8035906020019184600183028401116401000000008311171561015057600080fd5b91908080601f016020809104026020016040519081016040528093929190818152602001838380828437600081840152601f19601f820116905080830192505050505050509192919290803573ffffffffffffffffffffffffffffffffffffffff16906020019092919050505061078b565b005b6102a9600480360360608110156101da57600080fd5b81019080803573ffffffffffffffffffffffffffffffffffffffff1690602001909291908035906020019064010000000081111561021757600080fd5b82018360208201111561022957600080fd5b8035906020019184600183028401116401000000008311171561024b57600080fd5b91908080601f016020809104026020016040519081016040528093929190818152602001838380828437600081840152601f19601f8201169050808301925050505050505091929192908035151590602001909291905050506108ec565b005b610364600480360360208110156102c157600080fd5b81019080803590602001906401000000008111156102de57600080fd5b8201836020820111156102f057600080fd5b8035906020019184600183028401116401000000008311171561031257600080fd5b91908080601f016020809104026020016040519081016040528093929190818152602001838380828437600081840152601f19601f820116905080830192505050505050509192919290505050610adf565b005b61041f6004803603602081101561037c57600080fd5b810190808035906020019064010000000081111561039957600080fd5b8201836020820111156103ab57600080fd5b803590602001918460018302840111640100000000831117156103cd57600080fd5b91908080601f016020809104026020016040519081016040528093929190818152602001838380828437600081840152601f19601f820116905080830192505050505050509192919290505050610d24565b604051808215151515815260200191505060405180910390f35b6104f26004803603602081101561044f57600080fd5b810190808035906020019064010000000081111561046c57600080fd5b82018360208201111561047e57600080fd5b803590602001918460018302840111640100000000831117156104a057600080fd5b91908080601f016020809104026020016040519081016040528093929190818152602001838380828437600081840152601f19601f820116905080830192505050505050509192919290505050610e4c565b005b6106416004803603604081101561050a57600080fd5b810190808035906020019064010000000081111561052757600080fd5b82018360208201111561053957600080fd5b8035906020019184600183028401116401000000008311171561055b57600080fd5b91908080601f016020809104026020016040519081016040528093929190818152602001838380828437600081840152601f19601f820116905080830192505050505050509192919290803590602001906401000000008111156105be57600080fd5b8201836020820111156105d057600080fd5b803590602001918460208302840111640100000000831117156105f257600080fd5b919080806020026020016040519081016040528093929190818152602001838360200280828437600081840152601f19601f820116905080830192505050505050509192919290505050611150565b005b61064b611447565b604051808273ffffffffffffffffffffffffffffffffffffffff1673ffffffffffffffffffffffffffffffffffffffff16815260200191505060405180910390f35b60008060009054906101000a900473ffffffffffffffffffffffffffffffffffffffff1673ffffffffffffffffffffffffffffffffffffffff163373ffffffffffffffffffffffffffffffffffffffff1614610734576040517f08c379a000000000000000000000000000000000000000000000000000000000815260040180806020018281038252602581526020018061175b6025913960400191505060405180910390fd5b600260008373ffffffffffffffffffffffffffffffffffffffff1673ffffffffffffffffffffffffffffffffffffffff16815260200190815260200160002060010160149054906101000a900460ff169050919050565b60016107e2576040517f08c379a00000000000000000000000000000000000000000000000000000000081526004018080602001828103825260248152602001806117df6024913960400191505060405180910390fd5b6107ea61146c565b60405180606001604052808481526020013373ffffffffffffffffffffffffffffffffffffffff16815260200160011515815250905080600260008473ffffffffffffffffffffffffffffffffffffffff1673ffffffffffffffffffffffffffffffffffffffff168152602001908152602001600020600082015181600001908051906020019061087c9291906114a5565b5060208201518160010160006101000a81548173ffffffffffffffffffffffffffffffffffffffff021916908373ffffffffffffffffffffffffffffffffffffffff16021790555060408201518160010160146101000a81548160ff021916908315150217905550905050505050565b6001610943576040517f08c379a00000000000000000000000000000000000000000000000000000000081526004018080602001828103825260248152602001806117df6024913960400191505060405180910390fd5b3373ffffffffffffffffffffffffffffffffffffffff16600260008573ffffffffffffffffffffffffffffffffffffffff1673ffffffffffffffffffffffffffffffffffffffff16815260200190815260200160002060010160009054906101000a900473ffffffffffffffffffffffffffffffffffffffff1673ffffffffffffffffffffffffffffffffffffffff1614610a29576040517f08c379a00000000000000000000000000000000000000000000000000000000081526004018080602001828103825260338152602001806117806033913960400191505060405180910390fd5b81600260008573ffffffffffffffffffffffffffffffffffffffff1673ffffffffffffffffffffffffffffffffffffffff1681526020019081526020016000206000019080519060200190610a7f929190611525565b5080600260008573ffffffffffffffffffffffffffffffffffffffff1673ffffffffffffffffffffffffffffffffffffffff16815260200190815260200160002060010160146101000a81548160ff021916908315150217905550505050565b60011515600260003373ffffffffffffffffffffffffffffffffffffffff1673ffffffffffffffffffffffffffffffffffffffff16815260200190815260200160002060010160149054906101000a900460ff16151514610b8b576040517f08c379a000000000000000000000000000000000000000000000000000000000815260040180806020018281038252602c8152602001806117b3602c913960400191505060405180910390fd5b60006003826040518082805190602001908083835b60208310610bc35780518252602082019150602081019050602083039250610ba0565b6001836020036101000a038019825116818451168082178552505050505050905001915050908152602001604051809103902060020160006101000a81548160ff021916908315150217905550600160009054906101000a900473ffffffffffffffffffffffffffffffffffffffff1673ffffffffffffffffffffffffffffffffffffffff1663d1b2b60c826000426040518463ffffffff1660e01b81526004018080602001846001811115610c7557fe5b60ff168152602001838152602001828103825285818151815260200191508051906020019080838360005b83811015610cbb578082015181840152602081019050610ca0565b50505050905090810190601f168015610ce85780820380516001836020036101000a031916815260200191505b50945050505050600060405180830381600087803b158015610d0957600080fd5b505af1158015610d1d573d6000803e3d6000fd5b5050505050565b60008060009054906101000a900473ffffffffffffffffffffffffffffffffffffffff1673ffffffffffffffffffffffffffffffffffffffff163373ffffffffffffffffffffffffffffffffffffffff1614610dcb576040517f08c379a000000000000000000000000000000000000000000000000000000000815260040180806020018281038252602581526020018061175b6025913960400191505060405180910390fd5b6003826040518082805190602001908083835b60208310610e015780518252602082019150602081019050602083039250610dde565b6001836020036101000a038019825116818451168082178552505050505050905001915050908152602001604051809103902060020160009054906101000a900460ff169050919050565b60011515600260003373ffffffffffffffffffffffffffffffffffffffff1673ffffffffffffffffffffffffffffffffffffffff16815260200190815260200160002060010160149054906101000a900460ff16151514610ef8576040517f08c379a000000000000000000000000000000000000000000000000000000000815260040180806020018281038252602c8152602001806117b3602c913960400191505060405180910390fd5b60006003826040518082805190602001908083835b60208310610f305780518252602082019150602081019050602083039250610f0d565b6001836020036101000a038019825116818451168082178552505050505050905001915050908152602001604051809103902060000160009054906101000a900473ffffffffffffffffffffffffffffffffffffffff169050600260003373ffffffffffffffffffffffffffffffffffffffff1673ffffffffffffffffffffffffffffffffffffffff16815260200190815260200160002060010160009054906101000a900473ffffffffffffffffffffffffffffffffffffffff166003836040518082805190602001908083835b602083106110225780518252602082019150602081019050602083039250610fff565b6001836020036101000a038019825116818451168082178552505050505050905001915050908152602001604051809103902060000160006101000a81548173ffffffffffffffffffffffffffffffffffffffff021916908373ffffffffffffffffffffffffffffffffffffffff16021790555060405180602001604052808273ffffffffffffffffffffffffffffffffffffffff1673ffffffffffffffffffffffffffffffffffffffff168152506003836040518082805190602001908083835b6020831061110757805182526020820191506020810190506020830392506110e4565b6001836020036101000a038019825116818451168082178552505050505050905001915050908152602001604051809103902060010190600161114b9291906115a5565b505050565b60011515600260003373ffffffffffffffffffffffffffffffffffffffff1673ffffffffffffffffffffffffffffffffffffffff16815260200190815260200160002060010160149054906101000a900460ff161515146111fc576040517f08c379a000000000000000000000000000000000000000000000000000000000815260040180806020018281038252602c8152602001806117b3602c913960400191505060405180910390fd5b606081905061120961162f565b60405180606001604052803373ffffffffffffffffffffffffffffffffffffffff168152602001838152602001600115158152509050806003856040518082805190602001908083835b602083106112765780518252602082019150602081019050602083039250611253565b6001836020036101000a038019825116818451168082178552505050505050905001915050908152602001604051809103902060008201518160000160006101000a81548173ffffffffffffffffffffffffffffffffffffffff021916908373ffffffffffffffffffffffffffffffffffffffff160217905550602082015181600101908051906020019061130c929190611668565b5060408201518160020160006101000a81548160ff021916908315150217905550905050600160009054906101000a900473ffffffffffffffffffffffffffffffffffffffff1673ffffffffffffffffffffffffffffffffffffffff1663d1b2b60c856001426040518463ffffffff1660e01b8152600401808060200184600181111561139557fe5b60ff168152602001838152602001828103825285818151815260200191508051906020019080838360005b838110156113db5780820151818401526020810190506113c0565b50505050905090810190601f1680156114085780820380516001836020036101000a031916815260200191505b50945050505050600060405180830381600087803b15801561142957600080fd5b505af115801561143d573d6000803e3d6000fd5b5050505050505050565b6000809054906101000a900473ffffffffffffffffffffffffffffffffffffffff1681565b604051806060016040528060608152602001600073ffffffffffffffffffffffffffffffffffffffff1681526020016000151581525090565b828054600181600116156101000203166002900490600052602060002090601f016020900481019282601f106114e657805160ff1916838001178555611514565b82800160010185558215611514579182015b828111156115135782518255916020019190600101906114f8565b5b50905061152191906116f2565b5090565b828054600181600116156101000203166002900490600052602060002090601f016020900481019282601f1061156657805160ff1916838001178555611594565b82800160010185558215611594579182015b82811115611593578251825591602001919060010190611578565b5b5090506115a191906116f2565b5090565b82805482825590600052602060002090810192821561161e579160200282015b8281111561161d5782518260006101000a81548173ffffffffffffffffffffffffffffffffffffffff021916908373ffffffffffffffffffffffffffffffffffffffff160217905550916020019190600101906115c5565b5b50905061162b9190611717565b5090565b6040518060600160405280600073ffffffffffffffffffffffffffffffffffffffff168152602001606081526020016000151581525090565b8280548282559060005260206000209081019282156116e1579160200282015b828111156116e05782518260006101000a81548173ffffffffffffffffffffffffffffffffffffffff021916908373ffffffffffffffffffffffffffffffffffffffff16021790555091602001919060010190611688565b5b5090506116ee9190611717565b5090565b61171491905b808211156117105760008160009055506001016116f8565b5090565b90565b61175791905b8082111561175357600081816101000a81549073ffffffffffffffffffffffffffffffffffffffff02191690555060010161171d565b5090565b9056fe5b4572726f725d205468697320697320706c6174666f726d206f776e657220616374696f6e43616e6e6f742075706461746520737461747573206f6620776f726b65722066726f6d20616e6f7468657220636f756e7472795b4572726f725d205468697320697320616e2061637469766520776f726b6572206f6e6c7920616374696f6e5b4572726f725d20546869732069732061206d696e746572206f6e6c7920616374696f6ea265627a7a72315820493c3994741da002f5631bdab5c8d5d59783f5f453dd6224dd0868d071c7ca7f64736f6c63430005100032",
  "source": "pragma solidity ^0.5.0;\r\nimport \"./Passport.sol\";\r\n\r\ncontract Global {\r\n    address public _globalOwner = msg.sender;\r\n    Passport passport;\r\n\r\n    //Maps address of worker accounts\r\n    mapping(address => Worker) workers;\r\n\r\n    //Maps UUID of passports to trasnfer Records\r\n    mapping(string => TransferRecord) transferAuthority;\r\n\r\n    struct TransferRecord {\r\n        address prevOwner;\r\n        address[] newOwner;\r\n        bool isPending;\r\n    }\r\n\r\n    struct Worker {\r\n        string name;\r\n        address nationality; //Linked to Country minter\r\n        bool isActive;\r\n    }\r\n\r\n    function addNewWorker(string memory name, address workerAddress) public onlyMinter() {\r\n        Worker memory newWorker = Worker(name, msg.sender, true);\r\n        workers[workerAddress] = newWorker;\r\n    }\r\n\r\n    function updateWorkerStatus(address workerAddress, string memory name, bool status) public onlyMinter() {\r\n        require(workers[workerAddress].nationality == msg.sender, \"Cannot update status of worker from another country\");\r\n        workers[workerAddress].name = name;\r\n        workers[workerAddress].isActive = status;\r\n    }\r\n\r\n    //Precondition: Date is in UNIX epoch seconds format\r\n    //PostCondition: Create a transfer Record, Add new travel record to passport\r\n    function travelerDeparture(string memory UUID, address[] memory travelList) public onlyWorker() {\r\n\r\n        address[] memory travels = travelList;\r\n        TransferRecord memory newTransfer = TransferRecord(msg.sender, travels, true);\r\n        transferAuthority[UUID] = newTransfer;\r\n\r\n        passport.addTravelHistory(UUID, Passport.Action.Exit, block.timestamp);\r\n    }\r\n\r\n    //Precondition: Date is in UNIX epoch seconds format\r\n    //Postcondition: Freeze trasnfer record and add new travel record\r\n    function acceptTraveler(string memory UUID) public onlyWorker() {\r\n\r\n        transferAuthority[UUID].isPending = false;\r\n\r\n        passport.addTravelHistory(UUID, Passport.Action.Enter, block.timestamp);\r\n\r\n    }\r\n\r\n    //Precondition: transferRequest must exist\r\n    //PostCondition: Flip locations on transfer request\r\n    function rejectTraveler(string memory UUID) public onlyWorker() {\r\n\r\n        address toLoc = transferAuthority[UUID].prevOwner;\r\n        transferAuthority[UUID].prevOwner = workers[msg.sender].nationality;\r\n        // address[] memory newList = ;\r\n        transferAuthority[UUID].newOwner = [toLoc];\r\n\r\n    }\r\n\r\n    function checkActiveWorker(address workeraddress) public onlyOwner() returns (bool){\r\n        return workers[workeraddress].isActive;\r\n    }\r\n\r\n    function checkActiveTransfer(string memory UUID) public onlyOwner() returns (bool){\r\n        return transferAuthority[UUID].isPending;\r\n    }\r\n\r\n    modifier onlyMinter() {\r\n    //   require(passport.checkOwner(msg.sender), \"[Error] This is a minter only action\");\r\n      require(true, \"[Error] This is a minter only action\");\r\n      _;\r\n    }\r\n\r\n    modifier onlyWorker() {\r\n        require(workers[msg.sender].isActive == true, \"[Error] This is an active worker only action\");\r\n        _;\r\n    }\r\n\r\n    modifier onlyOwner() {\r\n        require(msg.sender == _globalOwner, \"[Error] This is platform owner action\");\r\n        _;\r\n    }\r\n}\r\n",
  "sourcePath": "C:\\Users\\Lim Shan Jing\\Desktop\\IS4302\\cryptyPassta\\src\\blockchain\\contracts\\Global.sol",
  "compiler": {
    "name": "solc",
    "version": "0.5.16+commit.9c3226ce.Emscripten.clang"
  },
  "schemaVersion": "3.0.23",
  "updatedAt": "2020-03-22T05:39:04.021Z",
  "networkType": "ethereum",
  "devdoc": {
    "methods": {}
  },
  "userdoc": {
    "methods": {}
  }
}