{
  "contractName": "Passport",
  "abi": [
    {
      "inputs": [],
      "payable": false,
      "stateMutability": "nonpayable",
      "type": "constructor"
    },
    {
      "anonymous": false,
      "inputs": [
        {
          "indexed": true,
          "internalType": "address",
          "name": "owner",
          "type": "address"
        },
        {
          "indexed": true,
          "internalType": "address",
          "name": "approved",
          "type": "address"
        },
        {
          "indexed": true,
          "internalType": "uint256",
          "name": "tokenId",
          "type": "uint256"
        }
      ],
      "name": "Approval",
      "type": "event"
    },
    {
      "anonymous": false,
      "inputs": [
        {
          "indexed": true,
          "internalType": "address",
          "name": "owner",
          "type": "address"
        },
        {
          "indexed": true,
          "internalType": "address",
          "name": "operator",
          "type": "address"
        },
        {
          "indexed": false,
          "internalType": "bool",
          "name": "approved",
          "type": "bool"
        }
      ],
      "name": "ApprovalForAll",
      "type": "event"
    },
    {
      "anonymous": false,
      "inputs": [
        {
          "indexed": true,
          "internalType": "address",
          "name": "account",
          "type": "address"
        }
      ],
      "name": "MinterAdded",
      "type": "event"
    },
    {
      "anonymous": false,
      "inputs": [
        {
          "indexed": true,
          "internalType": "address",
          "name": "account",
          "type": "address"
        }
      ],
      "name": "MinterRemoved",
      "type": "event"
    },
    {
      "anonymous": false,
      "inputs": [
        {
          "indexed": true,
          "internalType": "address",
          "name": "from",
          "type": "address"
        },
        {
          "indexed": true,
          "internalType": "address",
          "name": "to",
          "type": "address"
        },
        {
          "indexed": true,
          "internalType": "uint256",
          "name": "tokenId",
          "type": "uint256"
        }
      ],
      "name": "Transfer",
      "type": "event"
    },
    {
      "anonymous": false,
      "inputs": [
        {
          "indexed": false,
          "internalType": "string",
          "name": "countryCode",
          "type": "string"
        }
      ],
      "name": "countryRegistrationSuccess",
      "type": "event"
    },
    {
      "anonymous": false,
      "inputs": [
        {
          "indexed": false,
          "internalType": "string",
          "name": "UUID",
          "type": "string"
        }
      ],
      "name": "freezePassportSuccess",
      "type": "event"
    },
    {
      "anonymous": false,
      "inputs": [
        {
          "indexed": false,
          "internalType": "string",
          "name": "UUID",
          "type": "string"
        }
      ],
      "name": "passportCreationSuccess",
      "type": "event"
    },
    {
      "anonymous": false,
      "inputs": [
        {
          "indexed": false,
          "internalType": "string",
          "name": "UUID",
          "type": "string"
        }
      ],
      "name": "travelRecordAdditionSuccess",
      "type": "event"
    },
    {
      "constant": false,
      "inputs": [
        {
          "internalType": "address",
          "name": "account",
          "type": "address"
        }
      ],
      "name": "addMinter",
      "outputs": [],
      "payable": false,
      "stateMutability": "nonpayable",
      "type": "function"
    },
    {
      "constant": false,
      "inputs": [
        {
          "internalType": "address",
          "name": "to",
          "type": "address"
        },
        {
          "internalType": "uint256",
          "name": "tokenId",
          "type": "uint256"
        }
      ],
      "name": "approve",
      "outputs": [],
      "payable": false,
      "stateMutability": "nonpayable",
      "type": "function"
    },
    {
      "constant": true,
      "inputs": [
        {
          "internalType": "address",
          "name": "owner",
          "type": "address"
        }
      ],
      "name": "balanceOf",
      "outputs": [
        {
          "internalType": "uint256",
          "name": "",
          "type": "uint256"
        }
      ],
      "payable": false,
      "stateMutability": "view",
      "type": "function"
    },
    {
      "constant": true,
      "inputs": [],
      "name": "baseURI",
      "outputs": [
        {
          "internalType": "string",
          "name": "",
          "type": "string"
        }
      ],
      "payable": false,
      "stateMutability": "view",
      "type": "function"
    },
    {
      "constant": true,
      "inputs": [
        {
          "internalType": "uint256",
          "name": "tokenId",
          "type": "uint256"
        }
      ],
      "name": "getApproved",
      "outputs": [
        {
          "internalType": "address",
          "name": "",
          "type": "address"
        }
      ],
      "payable": false,
      "stateMutability": "view",
      "type": "function"
    },
    {
      "constant": true,
      "inputs": [
        {
          "internalType": "address",
          "name": "owner",
          "type": "address"
        },
        {
          "internalType": "address",
          "name": "operator",
          "type": "address"
        }
      ],
      "name": "isApprovedForAll",
      "outputs": [
        {
          "internalType": "bool",
          "name": "",
          "type": "bool"
        }
      ],
      "payable": false,
      "stateMutability": "view",
      "type": "function"
    },
    {
      "constant": true,
      "inputs": [
        {
          "internalType": "address",
          "name": "account",
          "type": "address"
        }
      ],
      "name": "isMinter",
      "outputs": [
        {
          "internalType": "bool",
          "name": "",
          "type": "bool"
        }
      ],
      "payable": false,
      "stateMutability": "view",
      "type": "function"
    },
    {
      "constant": false,
      "inputs": [
        {
          "internalType": "address",
          "name": "to",
          "type": "address"
        },
        {
          "internalType": "uint256",
          "name": "tokenId",
          "type": "uint256"
        }
      ],
      "name": "mint",
      "outputs": [
        {
          "internalType": "bool",
          "name": "",
          "type": "bool"
        }
      ],
      "payable": false,
      "stateMutability": "nonpayable",
      "type": "function"
    },
    {
      "constant": true,
      "inputs": [],
      "name": "name",
      "outputs": [
        {
          "internalType": "string",
          "name": "",
          "type": "string"
        }
      ],
      "payable": false,
      "stateMutability": "view",
      "type": "function"
    },
    {
      "constant": true,
      "inputs": [
        {
          "internalType": "uint256",
          "name": "tokenId",
          "type": "uint256"
        }
      ],
      "name": "ownerOf",
      "outputs": [
        {
          "internalType": "address",
          "name": "",
          "type": "address"
        }
      ],
      "payable": false,
      "stateMutability": "view",
      "type": "function"
    },
    {
      "constant": false,
      "inputs": [],
      "name": "renounceMinter",
      "outputs": [],
      "payable": false,
      "stateMutability": "nonpayable",
      "type": "function"
    },
    {
      "constant": false,
      "inputs": [
        {
          "internalType": "address",
          "name": "to",
          "type": "address"
        },
        {
          "internalType": "uint256",
          "name": "tokenId",
          "type": "uint256"
        },
        {
          "internalType": "bytes",
          "name": "_data",
          "type": "bytes"
        }
      ],
      "name": "safeMint",
      "outputs": [
        {
          "internalType": "bool",
          "name": "",
          "type": "bool"
        }
      ],
      "payable": false,
      "stateMutability": "nonpayable",
      "type": "function"
    },
    {
      "constant": false,
      "inputs": [
        {
          "internalType": "address",
          "name": "to",
          "type": "address"
        },
        {
          "internalType": "uint256",
          "name": "tokenId",
          "type": "uint256"
        }
      ],
      "name": "safeMint",
      "outputs": [
        {
          "internalType": "bool",
          "name": "",
          "type": "bool"
        }
      ],
      "payable": false,
      "stateMutability": "nonpayable",
      "type": "function"
    },
    {
      "constant": false,
      "inputs": [
        {
          "internalType": "address",
          "name": "from",
          "type": "address"
        },
        {
          "internalType": "address",
          "name": "to",
          "type": "address"
        },
        {
          "internalType": "uint256",
          "name": "tokenId",
          "type": "uint256"
        }
      ],
      "name": "safeTransferFrom",
      "outputs": [],
      "payable": false,
      "stateMutability": "nonpayable",
      "type": "function"
    },
    {
      "constant": false,
      "inputs": [
        {
          "internalType": "address",
          "name": "from",
          "type": "address"
        },
        {
          "internalType": "address",
          "name": "to",
          "type": "address"
        },
        {
          "internalType": "uint256",
          "name": "tokenId",
          "type": "uint256"
        },
        {
          "internalType": "bytes",
          "name": "_data",
          "type": "bytes"
        }
      ],
      "name": "safeTransferFrom",
      "outputs": [],
      "payable": false,
      "stateMutability": "nonpayable",
      "type": "function"
    },
    {
      "constant": false,
      "inputs": [
        {
          "internalType": "address",
          "name": "to",
          "type": "address"
        },
        {
          "internalType": "bool",
          "name": "approved",
          "type": "bool"
        }
      ],
      "name": "setApprovalForAll",
      "outputs": [],
      "payable": false,
      "stateMutability": "nonpayable",
      "type": "function"
    },
    {
      "constant": true,
      "inputs": [
        {
          "internalType": "bytes4",
          "name": "interfaceId",
          "type": "bytes4"
        }
      ],
      "name": "supportsInterface",
      "outputs": [
        {
          "internalType": "bool",
          "name": "",
          "type": "bool"
        }
      ],
      "payable": false,
      "stateMutability": "view",
      "type": "function"
    },
    {
      "constant": true,
      "inputs": [],
      "name": "symbol",
      "outputs": [
        {
          "internalType": "string",
          "name": "",
          "type": "string"
        }
      ],
      "payable": false,
      "stateMutability": "view",
      "type": "function"
    },
    {
      "constant": true,
      "inputs": [
        {
          "internalType": "uint256",
          "name": "index",
          "type": "uint256"
        }
      ],
      "name": "tokenByIndex",
      "outputs": [
        {
          "internalType": "uint256",
          "name": "",
          "type": "uint256"
        }
      ],
      "payable": false,
      "stateMutability": "view",
      "type": "function"
    },
    {
      "constant": true,
      "inputs": [
        {
          "internalType": "address",
          "name": "owner",
          "type": "address"
        },
        {
          "internalType": "uint256",
          "name": "index",
          "type": "uint256"
        }
      ],
      "name": "tokenOfOwnerByIndex",
      "outputs": [
        {
          "internalType": "uint256",
          "name": "",
          "type": "uint256"
        }
      ],
      "payable": false,
      "stateMutability": "view",
      "type": "function"
    },
    {
      "constant": true,
      "inputs": [
        {
          "internalType": "uint256",
          "name": "tokenId",
          "type": "uint256"
        }
      ],
      "name": "tokenURI",
      "outputs": [
        {
          "internalType": "string",
          "name": "",
          "type": "string"
        }
      ],
      "payable": false,
      "stateMutability": "view",
      "type": "function"
    },
    {
      "constant": true,
      "inputs": [],
      "name": "totalSupply",
      "outputs": [
        {
          "internalType": "uint256",
          "name": "",
          "type": "uint256"
        }
      ],
      "payable": false,
      "stateMutability": "view",
      "type": "function"
    },
    {
      "constant": false,
      "inputs": [
        {
          "internalType": "address",
          "name": "from",
          "type": "address"
        },
        {
          "internalType": "address",
          "name": "to",
          "type": "address"
        },
        {
          "internalType": "uint256",
          "name": "tokenId",
          "type": "uint256"
        }
      ],
      "name": "transferFrom",
      "outputs": [],
      "payable": false,
      "stateMutability": "nonpayable",
      "type": "function"
    },
    {
      "constant": false,
      "inputs": [
        {
          "internalType": "address",
          "name": "country",
          "type": "address"
        },
        {
          "internalType": "string",
          "name": "countryCode",
          "type": "string"
        }
      ],
      "name": "registerCountry",
      "outputs": [],
      "payable": false,
      "stateMutability": "nonpayable",
      "type": "function"
    },
    {
      "constant": false,
      "inputs": [
        {
          "internalType": "string",
          "name": "UUID",
          "type": "string"
        }
      ],
      "name": "createPassport",
      "outputs": [],
      "payable": false,
      "stateMutability": "nonpayable",
      "type": "function"
    },
    {
      "constant": false,
      "inputs": [
        {
          "internalType": "string",
          "name": "UUID",
          "type": "string"
        },
        {
          "internalType": "string",
          "name": "movement",
          "type": "string"
        },
        {
          "internalType": "uint256",
          "name": "timestamp",
          "type": "uint256"
        }
      ],
      "name": "addTravelRecord",
      "outputs": [],
      "payable": false,
      "stateMutability": "nonpayable",
      "type": "function"
    },
    {
      "constant": false,
      "inputs": [
        {
          "internalType": "string",
          "name": "UUID",
          "type": "string"
        }
      ],
      "name": "freezePassport",
      "outputs": [],
      "payable": false,
      "stateMutability": "nonpayable",
      "type": "function"
    },
    {
      "constant": true,
      "inputs": [
        {
          "internalType": "string",
          "name": "UUID",
          "type": "string"
        }
      ],
      "name": "viewPassportTravelRecords",
      "outputs": [
        {
          "components": [
            {
              "internalType": "address",
              "name": "destination",
              "type": "address"
            },
            {
              "internalType": "string",
              "name": "movement",
              "type": "string"
            },
            {
              "internalType": "uint256",
              "name": "datetime",
              "type": "uint256"
            }
          ],
          "internalType": "struct Passport.TravelAction[]",
          "name": "",
          "type": "tuple[]"
        }
      ],
      "payable": false,
      "stateMutability": "view",
      "type": "function"
    },
    {
      "constant": true,
      "inputs": [
        {
          "internalType": "string",
          "name": "UUID",
          "type": "string"
        }
      ],
      "name": "viewPassport",
      "outputs": [
        {
          "components": [
            {
              "internalType": "bool",
              "name": "isActive",
              "type": "bool"
            },
            {
              "internalType": "uint256",
              "name": "travelRecordLength",
              "type": "uint256"
            },
            {
              "internalType": "address",
              "name": "issuingCountry",
              "type": "address"
            }
          ],
          "internalType": "struct Passport.PassportToken",
          "name": "",
          "type": "tuple"
        }
      ],
      "payable": false,
      "stateMutability": "view",
      "type": "function"
    },
    {
      "constant": true,
      "inputs": [
        {
          "internalType": "address",
          "name": "countryAddress",
          "type": "address"
        }
      ],
      "name": "viewRegisteredCountry",
      "outputs": [
        {
          "internalType": "string",
          "name": "",
          "type": "string"
        }
      ],
      "payable": false,
      "stateMutability": "view",
      "type": "function"
    },
    {
      "constant": true,
      "inputs": [
        {
          "internalType": "address",
          "name": "countryAddress",
          "type": "address"
        }
      ],
      "name": "checkVerifiedCountry",
      "outputs": [
        {
          "internalType": "bool",
          "name": "",
          "type": "bool"
        }
      ],
      "payable": false,
      "stateMutability": "view",
      "type": "function"
    },
    {
      "constant": true,
      "inputs": [],
      "name": "viewRegisteredCountryList",
      "outputs": [
        {
          "components": [
            {
              "internalType": "bool",
              "name": "isVerifiedCountry",
              "type": "bool"
            },
            {
              "internalType": "string",
              "name": "countryCode",
              "type": "string"
            },
            {
              "internalType": "address",
              "name": "countryAddress",
              "type": "address"
            }
          ],
          "internalType": "struct Passport.Country[]",
          "name": "",
          "type": "tuple[]"
        }
      ],
      "payable": false,
      "stateMutability": "view",
      "type": "function"
    }
  ],
  "bytecode": "0x608060405260006011553480156200001657600080fd5b506040518060400160405280600881526020017f50617373706f72740000000000000000000000000000000000000000000000008152506040518060400160405280600481526020017f504153530000000000000000000000000000000000000000000000000000000081525081816200009d6301ffc9a760e01b6200018260201b60201c565b620000b56380ac58cd60e01b6200018260201b60201c565b620000cd63780e9d6360e01b6200018260201b60201c565b8160099080519060200190620000e592919062000441565b5080600a9080519060200190620000fe92919062000441565b5062000117635b5e139f60e01b6200018260201b60201c565b505050506200013b6200012f6200025a60201b60201c565b6200026260201b60201c565b33600e60006101000a81548173ffffffffffffffffffffffffffffffffffffffff021916908373ffffffffffffffffffffffffffffffffffffffff16021790555062000653565b63ffffffff60e01b817bffffffffffffffffffffffffffffffffffffffffffffffffffffffff19161415620001ee576040517f08c379a0000000000000000000000000000000000000000000000000000000008152600401620001e590620005fe565b60405180910390fd5b6001600080837bffffffffffffffffffffffffffffffffffffffffffffffffffffffff19167bffffffffffffffffffffffffffffffffffffffffffffffffffffffff1916815260200190815260200160002060006101000a81548160ff02191690831515021790555050565b600033905090565b6200027d81600d620002c360201b620033871790919060201c565b8073ffffffffffffffffffffffffffffffffffffffff167f6ae172837ea30b801fbfcdd4108aa1d5bf8ff775444fd70256b44e6bf3dfc3f660405160405180910390a250565b620002d582826200037660201b60201c565b1562000318576040517f08c379a00000000000000000000000000000000000000000000000000000000081526004016200030f90620005dc565b60405180910390fd5b60018260000160008373ffffffffffffffffffffffffffffffffffffffff1673ffffffffffffffffffffffffffffffffffffffff16815260200190815260200160002060006101000a81548160ff0219169083151502179055505050565b60008073ffffffffffffffffffffffffffffffffffffffff168273ffffffffffffffffffffffffffffffffffffffff161415620003ea576040517f08c379a0000000000000000000000000000000000000000000000000000000008152600401620003e19062000620565b60405180910390fd5b8260000160008373ffffffffffffffffffffffffffffffffffffffff1673ffffffffffffffffffffffffffffffffffffffff16815260200190815260200160002060009054906101000a900460ff16905092915050565b828054600181600116156101000203166002900490600052602060002090601f016020900481019282601f106200048457805160ff1916838001178555620004b5565b82800160010185558215620004b5579182015b82811115620004b457825182559160200191906001019062000497565b5b509050620004c49190620004c8565b5090565b620004ed91905b80821115620004e9576000816000905550600101620004cf565b5090565b90565b6000620004ff601f8362000642565b91507f526f6c65733a206163636f756e7420616c72656164792068617320726f6c65006000830152602082019050919050565b600062000541601c8362000642565b91507f4552433136353a20696e76616c696420696e74657266616365206964000000006000830152602082019050919050565b60006200058360228362000642565b91507f526f6c65733a206163636f756e7420697320746865207a65726f20616464726560008301527f73730000000000000000000000000000000000000000000000000000000000006020830152604082019050919050565b60006020820190508181036000830152620005f781620004f0565b9050919050565b60006020820190508181036000830152620006198162000532565b9050919050565b600060208201905081810360008301526200063b8162000574565b9050919050565b600082825260208201905092915050565b6152c580620006636000396000f3fe608060405234801561001057600080fd5b50600436106101f05760003560e01c806395d89b411161010f578063b88d4fde116100a2578063d77fdb2411610071578063d77fdb2414610627578063e985e9c514610643578063eaa4d26b14610673578063fad9eeef1461068f576101f0565b8063b88d4fde1461058f578063bcfe57d3146105ab578063c87b56dd146105c7578063cae884b7146105f7576101f0565b8063a22cb465116100de578063a22cb465146104e3578063a3332573146104ff578063aa271e1a1461052f578063b560c18c1461055f576101f0565b806395d89b411461046f578063983b2d561461048d57806398650275146104a9578063a1448194146104b3576101f0565b8063344c5079116101875780636352211e116101565780636352211e146103c15780636c0360eb146103f157806370a082311461040f5780638832e6e31461043f576101f0565b8063344c50791461032957806340c10f191461034557806342842e0e146103755780634f6ccce714610391576101f0565b806318160ddd116101c357806318160ddd1461028f5780631e7b6e5d146102ad57806323b872dd146102dd5780632f745c59146102f9576101f0565b806301ffc9a7146101f557806306fdde0314610225578063081812fc14610243578063095ea7b314610273575b600080fd5b61020f600480360361020a9190810190613baa565b6106ad565b60405161021c9190614c04565b60405180910390f35b61022d610714565b60405161023a9190614c1f565b60405180910390f35b61025d60048036036102589190810190613cbc565b6107b6565b60405161026a9190614b59565b60405180910390f35b61028d60048036036102889190810190613b07565b61083b565b005b6102976109f6565b6040516102a49190614fbc565b60405180910390f35b6102c760048036036102c29190810190613bfc565b610a03565b6040516102d49190614be2565b60405180910390f35b6102f760048036036102f291908101906139ad565b610d02565b005b610313600480360361030e9190810190613b07565b610d62565b6040516103209190614fbc565b60405180910390f35b610343600480360361033e9190810190613bfc565b610e0b565b005b61035f600480360361035a9190810190613b07565b611065565b60405161036c9190614c04565b60405180910390f35b61038f600480360361038a91908101906139ad565b6110ca565b005b6103ab60048036036103a69190810190613cbc565b6110ea565b6040516103b89190614fbc565b60405180910390f35b6103db60048036036103d69190810190613cbc565b611154565b6040516103e89190614b59565b60405180910390f35b6103f9611206565b6040516104069190614c1f565b60405180910390f35b61042960048036036104249190810190613948565b6112a8565b6040516104369190614fbc565b60405180910390f35b61045960048036036104549190810190613b43565b611367565b6040516104669190614c04565b60405180910390f35b6104776113ce565b6040516104849190614c1f565b60405180910390f35b6104a760048036036104a29190810190613948565b611470565b005b6104b16114cb565b005b6104cd60048036036104c89190810190613b07565b6114dd565b6040516104da9190614c04565b60405180910390f35b6104fd60048036036104f89190810190613a77565b611542565b005b61051960048036036105149190810190613948565b6116c3565b6040516105269190614c04565b60405180910390f35b61054960048036036105449190810190613948565b61171c565b6040516105569190614c04565b60405180910390f35b61057960048036036105749190810190613bfc565b611739565b6040516105869190614fa1565b60405180910390f35b6105a960048036036105a491908101906139fc565b61187e565b005b6105c560048036036105c09190810190613bfc565b6118e0565b005b6105e160048036036105dc9190810190613cbc565b611b5d565b6040516105ee9190614c1f565b60405180910390f35b610611600480360361060c9190810190613948565b611ca5565b60405161061e9190614c1f565b60405180910390f35b610641600480360361063c9190810190613ab3565b611e1f565b005b61065d60048036036106589190810190613971565b612053565b60405161066a9190614c04565b60405180910390f35b61068d60048036036106889190810190613c3d565b6120e7565b005b6106976124e8565b6040516106a49190614bc0565b60405180910390f35b6000806000837bffffffffffffffffffffffffffffffffffffffffffffffffffffffff19167bffffffffffffffffffffffffffffffffffffffffffffffffffffffff1916815260200190815260200160002060009054906101000a900460ff169050919050565b606060098054600181600116156101000203166002900480601f0160208091040260200160405190810160405280929190818152602001828054600181600116156101000203166002900480156107ac5780601f10610781576101008083540402835291602001916107ac565b820191906000526020600020905b81548152906001019060200180831161078f57829003601f168201915b5050505050905090565b60006107c1826126ff565b610800576040517f08c379a00000000000000000000000000000000000000000000000000000000081526004016107f790614e61565b60405180910390fd5b6002600083815260200190815260200160002060009054906101000a900473ffffffffffffffffffffffffffffffffffffffff169050919050565b600061084682611154565b90508073ffffffffffffffffffffffffffffffffffffffff168373ffffffffffffffffffffffffffffffffffffffff1614156108b7576040517f08c379a00000000000000000000000000000000000000000000000000000000081526004016108ae90614ee1565b60405180910390fd5b8073ffffffffffffffffffffffffffffffffffffffff166108d6612771565b73ffffffffffffffffffffffffffffffffffffffff1614806109055750610904816108ff612771565b612053565b5b610944576040517f08c379a000000000000000000000000000000000000000000000000000000000815260040161093b90614d61565b60405180910390fd5b826002600084815260200190815260200160002060006101000a81548173ffffffffffffffffffffffffffffffffffffffff021916908373ffffffffffffffffffffffffffffffffffffffff160217905550818373ffffffffffffffffffffffffffffffffffffffff168273ffffffffffffffffffffffffffffffffffffffff167f8c5be1e5ebec7d5bd14f71427d1e84f3dd0314c0f7b2291e5b200ac8c7c3b92560405160405180910390a4505050565b6000600780549050905090565b60606000601283604051610a179190614b1e565b9081526020016040518091039020541415610a67576040517f08c379a0000000000000000000000000000000000000000000000000000000008152600401610a5e90614f81565b60405180910390fd5b60006001601284604051610a7b9190614b1e565b908152602001604051809103902054039050610a956136bd565b60148281548110610aa257fe5b90600052602060002090600302016040518060600160405290816000820160009054906101000a900460ff16151515158152602001600182015481526020016002820160009054906101000a900473ffffffffffffffffffffffffffffffffffffffff1673ffffffffffffffffffffffffffffffffffffffff1673ffffffffffffffffffffffffffffffffffffffff16815250509050600115158160000151151514610b83576040517f08c379a0000000000000000000000000000000000000000000000000000000008152600401610b7a90614f61565b60405180910390fd5b601384604051610b939190614b1e565b9081526020016040518091039020805480602002602001604051908101604052809291908181526020016000905b82821015610cf557838290600052602060002090600302016040518060600160405290816000820160009054906101000a900473ffffffffffffffffffffffffffffffffffffffff1673ffffffffffffffffffffffffffffffffffffffff1673ffffffffffffffffffffffffffffffffffffffff168152602001600182018054600181600116156101000203166002900480601f016020809104026020016040519081016040528092919081815260200182805460018160011615610100020316600290048015610cd35780601f10610ca857610100808354040283529160200191610cd3565b820191906000526020600020905b815481529060010190602001808311610cb657829003601f168201915b5050505050815260200160028201548152505081526020019060010190610bc1565b5050505092505050919050565b610d13610d0d612771565b82612779565b610d52576040517f08c379a0000000000000000000000000000000000000000000000000000000008152600401610d4990614f01565b60405180910390fd5b610d5d838383612857565b505050565b6000610d6d836112a8565b8210610dae576040517f08c379a0000000000000000000000000000000000000000000000000000000008152600401610da590614c61565b60405180910390fd5b600560008473ffffffffffffffffffffffffffffffffffffffff1673ffffffffffffffffffffffffffffffffffffffff1681526020019081526020016000208281548110610df857fe5b9060005260206000200154905092915050565b600f60003373ffffffffffffffffffffffffffffffffffffffff1673ffffffffffffffffffffffffffffffffffffffff16815260200190815260200160002060000160009054906101000a900460ff16610e9a576040517f08c379a0000000000000000000000000000000000000000000000000000000008152600401610e9190614e01565b60405180910390fd5b6000601282604051610eac9190614b1e565b90815260200160405180910390205414610efb576040517f08c379a0000000000000000000000000000000000000000000000000000000008152600401610ef290614cc1565b60405180910390fd5b610f036136bd565b6001816000019015159081151581525050600081602001818152505033816040019073ffffffffffffffffffffffffffffffffffffffff16908173ffffffffffffffffffffffffffffffffffffffff168152505060006014829080600181540180825580915050906001820390600052602060002090600302016000909192909190915060008201518160000160006101000a81548160ff0219169083151502179055506020820151816001015560408201518160020160006101000a81548173ffffffffffffffffffffffffffffffffffffffff021916908373ffffffffffffffffffffffffffffffffffffffff160217905550505090508060128460405161100d9190614b1e565b908152602001604051809103902081905550611029338261287b565b7f9f3658ff93f3f5fa1b05880d02ec34ff0efe7fd2bbc4821a6f299fef45820572836040516110589190614c1f565b60405180910390a1505050565b6000611077611072612771565b61171c565b6110b6576040517f08c379a00000000000000000000000000000000000000000000000000000000081526004016110ad90614dc1565b60405180910390fd5b6110c0838361287b565b6001905092915050565b6110e58383836040518060200160405280600081525061187e565b505050565b60006110f46109f6565b8210611135576040517f08c379a000000000000000000000000000000000000000000000000000000000815260040161112c90614f21565b60405180910390fd5b6007828154811061114257fe5b90600052602060002001549050919050565b6000806001600084815260200190815260200160002060009054906101000a900473ffffffffffffffffffffffffffffffffffffffff169050600073ffffffffffffffffffffffffffffffffffffffff168173ffffffffffffffffffffffffffffffffffffffff1614156111fd576040517f08c379a00000000000000000000000000000000000000000000000000000000081526004016111f490614da1565b60405180910390fd5b80915050919050565b6060600b8054600181600116156101000203166002900480601f01602080910402602001604051908101604052809291908181526020018280546001816001161561010002031660029004801561129e5780601f106112735761010080835404028352916020019161129e565b820191906000526020600020905b81548152906001019060200180831161128157829003601f168201915b5050505050905090565b60008073ffffffffffffffffffffffffffffffffffffffff168273ffffffffffffffffffffffffffffffffffffffff161415611319576040517f08c379a000000000000000000000000000000000000000000000000000000000815260040161131090614d81565b60405180910390fd5b611360600360008473ffffffffffffffffffffffffffffffffffffffff1673ffffffffffffffffffffffffffffffffffffffff16815260200190815260200160002061289c565b9050919050565b6000611379611374612771565b61171c565b6113b8576040517f08c379a00000000000000000000000000000000000000000000000000000000081526004016113af90614dc1565b60405180910390fd5b6113c38484846128aa565b600190509392505050565b6060600a8054600181600116156101000203166002900480601f0160208091040260200160405190810160405280929190818152602001828054600181600116156101000203166002900480156114665780601f1061143b57610100808354040283529160200191611466565b820191906000526020600020905b81548152906001019060200180831161144957829003601f168201915b5050505050905090565b61148061147b612771565b61171c565b6114bf576040517f08c379a00000000000000000000000000000000000000000000000000000000081526004016114b690614dc1565b60405180910390fd5b6114c881612905565b50565b6114db6114d6612771565b61295f565b565b60006114ef6114ea612771565b61171c565b61152e576040517f08c379a000000000000000000000000000000000000000000000000000000000815260040161152590614dc1565b60405180910390fd5b61153883836129b9565b6001905092915050565b61154a612771565b73ffffffffffffffffffffffffffffffffffffffff168273ffffffffffffffffffffffffffffffffffffffff1614156115b8576040517f08c379a00000000000000000000000000000000000000000000000000000000081526004016115af90614d01565b60405180910390fd5b80600460006115c5612771565b73ffffffffffffffffffffffffffffffffffffffff1673ffffffffffffffffffffffffffffffffffffffff16815260200190815260200160002060008473ffffffffffffffffffffffffffffffffffffffff1673ffffffffffffffffffffffffffffffffffffffff16815260200190815260200160002060006101000a81548160ff0219169083151502179055508173ffffffffffffffffffffffffffffffffffffffff16611672612771565b73ffffffffffffffffffffffffffffffffffffffff167f17307eab39ab6107e8899845ad3d59bd9653f200f220920489ca2b5937696c31836040516116b79190614c04565b60405180910390a35050565b6000600f60008373ffffffffffffffffffffffffffffffffffffffff1673ffffffffffffffffffffffffffffffffffffffff16815260200190815260200160002060000160009054906101000a900460ff169050919050565b600061173282600d6129d790919063ffffffff16565b9050919050565b6117416136bd565b60006012836040516117539190614b1e565b90815260200160405180910390205414156117a3576040517f08c379a000000000000000000000000000000000000000000000000000000000815260040161179a90614f81565b60405180910390fd5b600060016012846040516117b79190614b1e565b9081526020016040518091039020540390506117d16136bd565b601482815481106117de57fe5b90600052602060002090600302016040518060600160405290816000820160009054906101000a900460ff16151515158152602001600182015481526020016002820160009054906101000a900473ffffffffffffffffffffffffffffffffffffffff1673ffffffffffffffffffffffffffffffffffffffff1673ffffffffffffffffffffffffffffffffffffffff168152505090508092505050919050565b61188f611889612771565b83612779565b6118ce576040517f08c379a00000000000000000000000000000000000000000000000000000000081526004016118c590614f01565b60405180910390fd5b6118da84848484612a9f565b50505050565b803373ffffffffffffffffffffffffffffffffffffffff166014600160128460405161190c9190614b1e565b908152602001604051809103902054038154811061192657fe5b906000526020600020906003020160020160009054906101000a900473ffffffffffffffffffffffffffffffffffffffff1673ffffffffffffffffffffffffffffffffffffffff16146119ae576040517f08c379a00000000000000000000000000000000000000000000000000000000081526004016119a590614d41565b60405180910390fd5b600060016012846040516119c29190614b1e565b9081526020016040518091039020540390506119dc6136bd565b601482815481106119e957fe5b90600052602060002090600302016040518060600160405290816000820160009054906101000a900460ff16151515158152602001600182015481526020016002820160009054906101000a900473ffffffffffffffffffffffffffffffffffffffff1673ffffffffffffffffffffffffffffffffffffffff1673ffffffffffffffffffffffffffffffffffffffff1681525050905060008160000190151590811515815250508060148381548110611a9e57fe5b906000526020600020906003020160008201518160000160006101000a81548160ff0219169083151502179055506020820151816001015560408201518160020160006101000a81548173ffffffffffffffffffffffffffffffffffffffff021916908373ffffffffffffffffffffffffffffffffffffffff1602179055509050507f1d3a2ce0bf5de442df5bf1f36e6950de4bae666eaa1286b73ab6a550e5c3d0b184604051611b4f9190614c1f565b60405180910390a150505050565b6060611b68826126ff565b611ba7576040517f08c379a0000000000000000000000000000000000000000000000000000000008152600401611b9e90614ec1565b60405180910390fd5b6060600c60008481526020019081526020016000208054600181600116156101000203166002900480601f016020809104026020016040519081016040528092919081815260200182805460018160011615610100020316600290048015611c505780601f10611c2557610100808354040283529160200191611c50565b820191906000526020600020905b815481529060010190602001808311611c3357829003601f168201915b50505050509050600081511415611c795760405180602001604052806000815250915050611ca0565b600b81604051602001611c8d929190614b35565b6040516020818303038152906040529150505b919050565b606060011515600f60008473ffffffffffffffffffffffffffffffffffffffff1673ffffffffffffffffffffffffffffffffffffffff16815260200190815260200160002060000160009054906101000a900460ff16151514611d3d576040517f08c379a0000000000000000000000000000000000000000000000000000000008152600401611d3490614e41565b60405180910390fd5b600f60008373ffffffffffffffffffffffffffffffffffffffff1673ffffffffffffffffffffffffffffffffffffffff1681526020019081526020016000206001018054600181600116156101000203166002900480601f016020809104026020016040519081016040528092919081815260200182805460018160011615610100020316600290048015611e135780601f10611de857610100808354040283529160200191611e13565b820191906000526020600020905b815481529060010190602001808311611df657829003601f168201915b50505050509050919050565b600e60009054906101000a900473ffffffffffffffffffffffffffffffffffffffff1673ffffffffffffffffffffffffffffffffffffffff163373ffffffffffffffffffffffffffffffffffffffff1614611eaf576040517f08c379a0000000000000000000000000000000000000000000000000000000008152600401611ea690614f41565b60405180910390fd5b60405180606001604052806001151581526020018281526020018373ffffffffffffffffffffffffffffffffffffffff16815250600f60008473ffffffffffffffffffffffffffffffffffffffff1673ffffffffffffffffffffffffffffffffffffffff16815260200190815260200160002060008201518160000160006101000a81548160ff0219169083151502179055506020820151816001019080519060200190611f5e9291906136f6565b5060408201518160020160006101000a81548173ffffffffffffffffffffffffffffffffffffffff021916908373ffffffffffffffffffffffffffffffffffffffff160217905550905050611fb282611470565b6011600081548092919060010191905055508160106000601154815260200190815260200160002060006101000a81548173ffffffffffffffffffffffffffffffffffffffff021916908373ffffffffffffffffffffffffffffffffffffffff1602179055507f4deffd3c5a1de60d7fa261c9c0f6c9b4ecedf6547b59276231029009e3a7f57a816040516120479190614c1f565b60405180910390a15050565b6000600460008473ffffffffffffffffffffffffffffffffffffffff1673ffffffffffffffffffffffffffffffffffffffff16815260200190815260200160002060008373ffffffffffffffffffffffffffffffffffffffff1673ffffffffffffffffffffffffffffffffffffffff16815260200190815260200160002060009054906101000a900460ff16905092915050565b600f60003373ffffffffffffffffffffffffffffffffffffffff1673ffffffffffffffffffffffffffffffffffffffff16815260200190815260200160002060000160009054906101000a900460ff16612176576040517f08c379a000000000000000000000000000000000000000000000000000000000815260040161216d90614e01565b60405180910390fd5b60006012846040516121889190614b1e565b90815260200160405180910390205414156121d8576040517f08c379a00000000000000000000000000000000000000000000000000000000081526004016121cf90614f81565b60405180910390fd5b600060016012856040516121ec9190614b1e565b9081526020016040518091039020540390506122066136bd565b6014828154811061221357fe5b90600052602060002090600302016040518060600160405290816000820160009054906101000a900460ff16151515158152602001600182015481526020016002820160009054906101000a900473ffffffffffffffffffffffffffffffffffffffff1673ffffffffffffffffffffffffffffffffffffffff1673ffffffffffffffffffffffffffffffffffffffff168152505090506001151581600001511515146122f4576040517f08c379a00000000000000000000000000000000000000000000000000000000081526004016122eb90614f61565b60405180910390fd5b6122fc613776565b33816000019073ffffffffffffffffffffffffffffffffffffffff16908173ffffffffffffffffffffffffffffffffffffffff1681525050848160200181905250838160400181815250506013866040516123579190614b1e565b9081526020016040518091039020819080600181540180825580915050906001820390600052602060002090600302016000909192909190915060008201518160000160006101000a81548173ffffffffffffffffffffffffffffffffffffffff021916908373ffffffffffffffffffffffffffffffffffffffff16021790555060208201518160010190805190602001906123f49291906136f6565b506040820151816002015550505060006001836020015101905080836020018181525050826014858154811061242657fe5b906000526020600020906003020160008201518160000160006101000a81548160ff0219169083151502179055506020820151816001015560408201518160020160006101000a81548173ffffffffffffffffffffffffffffffffffffffff021916908373ffffffffffffffffffffffffffffffffffffffff1602179055509050507f2d68bf2fee036b183d45d6557e6d33bcb1e8571dfce80f6a648c0b47806b4eef876040516124d79190614c1f565b60405180910390a150505050505050565b60608060115460405190808252806020026020018201604052801561252757816020015b6125146137ad565b81526020019060019003908161250c5790505b50905060008090505b6011548110156126f75760006010600060018401815260200190815260200160002060009054906101000a900473ffffffffffffffffffffffffffffffffffffffff169050600f60008273ffffffffffffffffffffffffffffffffffffffff1673ffffffffffffffffffffffffffffffffffffffff1681526020019081526020016000206040518060600160405290816000820160009054906101000a900460ff16151515158152602001600182018054600181600116156101000203166002900480601f0160208091040260200160405190810160405280929190818152602001828054600181600116156101000203166002900480156126735780601f1061264857610100808354040283529160200191612673565b820191906000526020600020905b81548152906001019060200180831161265657829003601f168201915b505050505081526020016002820160009054906101000a900473ffffffffffffffffffffffffffffffffffffffff1673ffffffffffffffffffffffffffffffffffffffff1673ffffffffffffffffffffffffffffffffffffffff16815250508383815181106126de57fe5b6020026020010181905250508080600101915050612530565b508091505090565b6000806001600084815260200190815260200160002060009054906101000a900473ffffffffffffffffffffffffffffffffffffffff169050600073ffffffffffffffffffffffffffffffffffffffff168173ffffffffffffffffffffffffffffffffffffffff161415915050919050565b600033905090565b6000612784826126ff565b6127c3576040517f08c379a00000000000000000000000000000000000000000000000000000000081526004016127ba90614d21565b60405180910390fd5b60006127ce83611154565b90508073ffffffffffffffffffffffffffffffffffffffff168473ffffffffffffffffffffffffffffffffffffffff16148061283d57508373ffffffffffffffffffffffffffffffffffffffff16612825846107b6565b73ffffffffffffffffffffffffffffffffffffffff16145b8061284e575061284d8185612053565b5b91505092915050565b612862838383612afb565b61286c8382612d2a565b6128768282612ec8565b505050565b6128858282612f8f565b61288f8282612ec8565b61289881613141565b5050565b600081600001549050919050565b6128b4838361287b565b6128c1600084848461318d565b612900576040517f08c379a00000000000000000000000000000000000000000000000000000000081526004016128f790614c81565b60405180910390fd5b505050565b61291981600d61338790919063ffffffff16565b8073ffffffffffffffffffffffffffffffffffffffff167f6ae172837ea30b801fbfcdd4108aa1d5bf8ff775444fd70256b44e6bf3dfc3f660405160405180910390a250565b61297381600d61342f90919063ffffffff16565b8073ffffffffffffffffffffffffffffffffffffffff167fe94479a9f7e1952cc78f2d6baab678adc1b772d936c6583def489e524cb6669260405160405180910390a250565b6129d38282604051806020016040528060008152506128aa565b5050565b60008073ffffffffffffffffffffffffffffffffffffffff168273ffffffffffffffffffffffffffffffffffffffff161415612a48576040517f08c379a0000000000000000000000000000000000000000000000000000000008152600401612a3f90614e81565b60405180910390fd5b8260000160008373ffffffffffffffffffffffffffffffffffffffff1673ffffffffffffffffffffffffffffffffffffffff16815260200190815260200160002060009054906101000a900460ff16905092915050565b612aaa848484612857565b612ab68484848461318d565b612af5576040517f08c379a0000000000000000000000000000000000000000000000000000000008152600401612aec90614c81565b60405180910390fd5b50505050565b8273ffffffffffffffffffffffffffffffffffffffff16612b1b82611154565b73ffffffffffffffffffffffffffffffffffffffff1614612b71576040517f08c379a0000000000000000000000000000000000000000000000000000000008152600401612b6890614ea1565b60405180910390fd5b600073ffffffffffffffffffffffffffffffffffffffff168273ffffffffffffffffffffffffffffffffffffffff161415612be1576040517f08c379a0000000000000000000000000000000000000000000000000000000008152600401612bd890614ce1565b60405180910390fd5b612bea816134d6565b612c31600360008573ffffffffffffffffffffffffffffffffffffffff1673ffffffffffffffffffffffffffffffffffffffff168152602001908152602001600020613594565b612c78600360008473ffffffffffffffffffffffffffffffffffffffff1673ffffffffffffffffffffffffffffffffffffffff1681526020019081526020016000206135b7565b816001600083815260200190815260200160002060006101000a81548173ffffffffffffffffffffffffffffffffffffffff021916908373ffffffffffffffffffffffffffffffffffffffff160217905550808273ffffffffffffffffffffffffffffffffffffffff168473ffffffffffffffffffffffffffffffffffffffff167fddf252ad1be2c89b69c2b068fc378daa952ba7f163c4a11628f55a4df523b3ef60405160405180910390a4505050565b6000612d826001600560008673ffffffffffffffffffffffffffffffffffffffff1673ffffffffffffffffffffffffffffffffffffffff168152602001908152602001600020805490506135cd90919063ffffffff16565b9050600060066000848152602001908152602001600020549050818114612e6f576000600560008673ffffffffffffffffffffffffffffffffffffffff1673ffffffffffffffffffffffffffffffffffffffff1681526020019081526020016000208381548110612def57fe5b9060005260206000200154905080600560008773ffffffffffffffffffffffffffffffffffffffff1673ffffffffffffffffffffffffffffffffffffffff1681526020019081526020016000208381548110612e4757fe5b9060005260206000200181905550816006600083815260200190815260200160002081905550505b600560008573ffffffffffffffffffffffffffffffffffffffff1673ffffffffffffffffffffffffffffffffffffffff168152602001908152602001600020805480919060019003612ec191906137e6565b5050505050565b600560008373ffffffffffffffffffffffffffffffffffffffff1673ffffffffffffffffffffffffffffffffffffffff168152602001908152602001600020805490506006600083815260200190815260200160002081905550600560008373ffffffffffffffffffffffffffffffffffffffff1673ffffffffffffffffffffffffffffffffffffffff1681526020019081526020016000208190806001815401808255809150509060018203906000526020600020016000909192909190915055505050565b600073ffffffffffffffffffffffffffffffffffffffff168273ffffffffffffffffffffffffffffffffffffffff161415612fff576040517f08c379a0000000000000000000000000000000000000000000000000000000008152600401612ff690614e21565b60405180910390fd5b613008816126ff565b15613048576040517f08c379a000000000000000000000000000000000000000000000000000000000815260040161303f90614ca1565b60405180910390fd5b816001600083815260200190815260200160002060006101000a81548173ffffffffffffffffffffffffffffffffffffffff021916908373ffffffffffffffffffffffffffffffffffffffff1602179055506130e1600360008473ffffffffffffffffffffffffffffffffffffffff1673ffffffffffffffffffffffffffffffffffffffff1681526020019081526020016000206135b7565b808273ffffffffffffffffffffffffffffffffffffffff16600073ffffffffffffffffffffffffffffffffffffffff167fddf252ad1be2c89b69c2b068fc378daa952ba7f163c4a11628f55a4df523b3ef60405160405180910390a45050565b6007805490506008600083815260200190815260200160002081905550600781908060018154018082558091505090600182039060005260206000200160009091929091909150555050565b60006131ae8473ffffffffffffffffffffffffffffffffffffffff16613617565b6131bb576001905061337f565b600060608573ffffffffffffffffffffffffffffffffffffffff168673ffffffffffffffffffffffffffffffffffffffff1663150b7a02905060e01b6131ff612771565b8988886040516024016132159493929190614b74565b604051602081830303815290604052907bffffffffffffffffffffffffffffffffffffffffffffffffffffffff19166020820180517bffffffffffffffffffffffffffffffffffffffffffffffffffffffff838183161783525050505060405161327f9190614b07565b6000604051808303816000865af19150503d80600081146132bc576040519150601f19603f3d011682016040523d82523d6000602084013e6132c1565b606091505b509150915081613319576000815111156132de5780518082602001fd5b6040517f08c379a000000000000000000000000000000000000000000000000000000000815260040161331090614c81565b60405180910390fd5b60008180602001905161332f9190810190613bd3565b905063150b7a0260e01b7bffffffffffffffffffffffffffffffffffffffffffffffffffffffff1916817bffffffffffffffffffffffffffffffffffffffffffffffffffffffff19161493505050505b949350505050565b61339182826129d7565b156133d1576040517f08c379a00000000000000000000000000000000000000000000000000000000081526004016133c890614c41565b60405180910390fd5b60018260000160008373ffffffffffffffffffffffffffffffffffffffff1673ffffffffffffffffffffffffffffffffffffffff16815260200190815260200160002060006101000a81548160ff0219169083151502179055505050565b61343982826129d7565b613478576040517f08c379a000000000000000000000000000000000000000000000000000000000815260040161346f90614de1565b60405180910390fd5b60008260000160008373ffffffffffffffffffffffffffffffffffffffff1673ffffffffffffffffffffffffffffffffffffffff16815260200190815260200160002060006101000a81548160ff0219169083151502179055505050565b600073ffffffffffffffffffffffffffffffffffffffff166002600083815260200190815260200160002060009054906101000a900473ffffffffffffffffffffffffffffffffffffffff1673ffffffffffffffffffffffffffffffffffffffff16146135915760006002600083815260200190815260200160002060006101000a81548173ffffffffffffffffffffffffffffffffffffffff021916908373ffffffffffffffffffffffffffffffffffffffff1602179055505b50565b6135ac600182600001546135cd90919063ffffffff16565b816000018190555050565b6001816000016000828254019250508190555050565b600061360f83836040518060400160405280601e81526020017f536166654d6174683a207375627472616374696f6e206f766572666c6f770000815250613662565b905092915050565b60008060007fc5d2460186f7233c927e7db2dcc703c0e500b653ca82273b7bfad8045d85a47060001b9050833f915080821415801561365957506000801b8214155b92505050919050565b60008383111582906136aa576040517f08c379a00000000000000000000000000000000000000000000000000000000081526004016136a19190614c1f565b60405180910390fd5b5060008385039050809150509392505050565b604051806060016040528060001515815260200160008152602001600073ffffffffffffffffffffffffffffffffffffffff1681525090565b828054600181600116156101000203166002900490600052602060002090601f016020900481019282601f1061373757805160ff1916838001178555613765565b82800160010185558215613765579182015b82811115613764578251825591602001919060010190613749565b5b5090506137729190613812565b5090565b6040518060600160405280600073ffffffffffffffffffffffffffffffffffffffff16815260200160608152602001600081525090565b604051806060016040528060001515815260200160608152602001600073ffffffffffffffffffffffffffffffffffffffff1681525090565b81548183558181111561380d5781836000526020600020918201910161380c9190613812565b5b505050565b61383491905b80821115613830576000816000905550600101613818565b5090565b90565b60008135905061384681615226565b92915050565b60008135905061385b8161523d565b92915050565b60008135905061387081615254565b92915050565b60008151905061388581615254565b92915050565b600082601f83011261389c57600080fd5b81356138af6138aa82615004565b614fd7565b915080825260208301602083018583830111156138cb57600080fd5b6138d68382846151d3565b50505092915050565b600082601f8301126138f057600080fd5b81356139036138fe82615030565b614fd7565b9150808252602083016020830185838301111561391f57600080fd5b61392a8382846151d3565b50505092915050565b6000813590506139428161526b565b92915050565b60006020828403121561395a57600080fd5b600061396884828501613837565b91505092915050565b6000806040838503121561398457600080fd5b600061399285828601613837565b92505060206139a385828601613837565b9150509250929050565b6000806000606084860312156139c257600080fd5b60006139d086828701613837565b93505060206139e186828701613837565b92505060406139f286828701613933565b9150509250925092565b60008060008060808587031215613a1257600080fd5b6000613a2087828801613837565b9450506020613a3187828801613837565b9350506040613a4287828801613933565b925050606085013567ffffffffffffffff811115613a5f57600080fd5b613a6b8782880161388b565b91505092959194509250565b60008060408385031215613a8a57600080fd5b6000613a9885828601613837565b9250506020613aa98582860161384c565b9150509250929050565b60008060408385031215613ac657600080fd5b6000613ad485828601613837565b925050602083013567ffffffffffffffff811115613af157600080fd5b613afd858286016138df565b9150509250929050565b60008060408385031215613b1a57600080fd5b6000613b2885828601613837565b9250506020613b3985828601613933565b9150509250929050565b600080600060608486031215613b5857600080fd5b6000613b6686828701613837565b9350506020613b7786828701613933565b925050604084013567ffffffffffffffff811115613b9457600080fd5b613ba08682870161388b565b9150509250925092565b600060208284031215613bbc57600080fd5b6000613bca84828501613861565b91505092915050565b600060208284031215613be557600080fd5b6000613bf384828501613876565b91505092915050565b600060208284031215613c0e57600080fd5b600082013567ffffffffffffffff811115613c2857600080fd5b613c34848285016138df565b91505092915050565b600080600060608486031215613c5257600080fd5b600084013567ffffffffffffffff811115613c6c57600080fd5b613c78868287016138df565b935050602084013567ffffffffffffffff811115613c9557600080fd5b613ca1868287016138df565b9250506040613cb286828701613933565b9150509250925092565b600060208284031215613cce57600080fd5b6000613cdc84828501613933565b91505092915050565b6000613cf18383614a07565b905092915050565b6000613d058383614a99565b905092915050565b613d168161515f565b82525050565b613d258161514d565b82525050565b613d348161514d565b82525050565b6000613d4582615091565b613d4f81856150e2565b935083602082028501613d618561505c565b8060005b85811015613d9d5784840389528151613d7e8582613ce5565b9450613d89836150c8565b925060208a01995050600181019050613d65565b50829750879550505050505092915050565b6000613dba8261509c565b613dc481856150f3565b935083602082028501613dd68561506c565b8060005b85811015613e125784840389528151613df38582613cf9565b9450613dfe836150d5565b925060208a01995050600181019050613dda565b50829750879550505050505092915050565b613e2d81615171565b82525050565b613e3c81615171565b82525050565b6000613e4d826150a7565b613e578185615104565b9350613e678185602086016151e2565b613e7081615215565b840191505092915050565b6000613e86826150a7565b613e908185615115565b9350613ea08185602086016151e2565b80840191505092915050565b6000613eb7826150bd565b613ec18185615131565b9350613ed18185602086016151e2565b613eda81615215565b840191505092915050565b6000613ef0826150bd565b613efa8185615142565b9350613f0a8185602086016151e2565b80840191505092915050565b6000613f21826150b2565b613f2b8185615120565b9350613f3b8185602086016151e2565b613f4481615215565b840191505092915050565b600081546001811660008114613f6c5760018114613f9157613fd5565b607f6002830416613f7d8187615142565b955060ff1983168652808601935050613fd5565b60028204613f9f8187615142565b9550613faa8561507c565b60005b82811015613fcc57815481890152600182019150602081019050613fad565b82880195505050505b505092915050565b6000613fea601f83615131565b91507f526f6c65733a206163636f756e7420616c72656164792068617320726f6c65006000830152602082019050919050565b600061402a602b83615131565b91507f455243373231456e756d657261626c653a206f776e657220696e646578206f7560008301527f74206f6620626f756e64730000000000000000000000000000000000000000006020830152604082019050919050565b6000614090603283615131565b91507f4552433732313a207472616e7366657220746f206e6f6e20455243373231526560008301527f63656976657220696d706c656d656e74657200000000000000000000000000006020830152604082019050919050565b60006140f6601c83615131565b91507f4552433732313a20746f6b656e20616c7265616479206d696e746564000000006000830152602082019050919050565b6000614136603a83615131565b91507f5b4552524f525d20412070617373706f7274207769746820746869732055554960008301527f442068617320616c7265616479206265656e20637265617465640000000000006020830152604082019050919050565b600061419c602483615131565b91507f4552433732313a207472616e7366657220746f20746865207a65726f2061646460008301527f72657373000000000000000000000000000000000000000000000000000000006020830152604082019050919050565b6000614202601983615131565b91507f4552433732313a20617070726f766520746f2063616c6c6572000000000000006000830152602082019050919050565b6000614242602c83615131565b91507f4552433732313a206f70657261746f7220717565727920666f72206e6f6e657860008301527f697374656e7420746f6b656e00000000000000000000000000000000000000006020830152604082019050919050565b60006142a8603c83615131565b91507f5b494e56414c4944205045524d495353494f4e5d2050617373706f727420546f60008301527f6b656e2049737375696e6720436f756e747279205265717569726564000000006020830152604082019050919050565b600061430e603883615131565b91507f4552433732313a20617070726f76652063616c6c6572206973206e6f74206f7760008301527f6e6572206e6f7220617070726f76656420666f7220616c6c00000000000000006020830152604082019050919050565b6000614374602a83615131565b91507f4552433732313a2062616c616e636520717565727920666f7220746865207a6560008301527f726f2061646472657373000000000000000000000000000000000000000000006020830152604082019050919050565b60006143da602983615131565b91507f4552433732313a206f776e657220717565727920666f72206e6f6e657869737460008301527f656e7420746f6b656e00000000000000000000000000000000000000000000006020830152604082019050919050565b6000614440603083615131565b91507f4d696e746572526f6c653a2063616c6c657220646f6573206e6f74206861766560008301527f20746865204d696e74657220726f6c65000000000000000000000000000000006020830152604082019050919050565b60006144a6602183615131565b91507f526f6c65733a206163636f756e7420646f6573206e6f74206861766520726f6c60008301527f65000000000000000000000000000000000000000000000000000000000000006020830152604082019050919050565b600061450c602e83615131565b91507f5b494e56414c4944205045524d495353494f4e5d20566572696669656420436f60008301527f756e7472792052657175697265640000000000000000000000000000000000006020830152604082019050919050565b6000614572602083615131565b91507f4552433732313a206d696e7420746f20746865207a65726f20616464726573736000830152602082019050919050565b60006145b2602b83615131565b91507f5b4552524f525d204e6f207375636820636f756e74727920686173206265656e60008301527f20726567697374657265640000000000000000000000000000000000000000006020830152604082019050919050565b6000614618602c83615131565b91507f4552433732313a20617070726f76656420717565727920666f72206e6f6e657860008301527f697374656e7420746f6b656e00000000000000000000000000000000000000006020830152604082019050919050565b600061467e602283615131565b91507f526f6c65733a206163636f756e7420697320746865207a65726f20616464726560008301527f73730000000000000000000000000000000000000000000000000000000000006020830152604082019050919050565b60006146e4602983615131565b91507f4552433732313a207472616e73666572206f6620746f6b656e2074686174206960008301527f73206e6f74206f776e00000000000000000000000000000000000000000000006020830152604082019050919050565b600061474a602f83615131565b91507f4552433732314d657461646174613a2055524920717565727920666f72206e6f60008301527f6e6578697374656e7420746f6b656e00000000000000000000000000000000006020830152604082019050919050565b60006147b0602183615131565b91507f4552433732313a20617070726f76616c20746f2063757272656e74206f776e6560008301527f72000000000000000000000000000000000000000000000000000000000000006020830152604082019050919050565b6000614816603183615131565b91507f4552433732313a207472616e736665722063616c6c6572206973206e6f74206f60008301527f776e6572206e6f7220617070726f7665640000000000000000000000000000006020830152604082019050919050565b600061487c602c83615131565b91507f455243373231456e756d657261626c653a20676c6f62616c20696e646578206f60008301527f7574206f6620626f756e647300000000000000000000000000000000000000006020830152604082019050919050565b60006148e2602383615131565b91507f5b494e56414c4944205045524d495353494f4e5d204f776e657220526571756960008301527f72656400000000000000000000000000000000000000000000000000000000006020830152604082019050919050565b6000614948602183615131565b91507f5b4552524f525d2050617373706f727420686173206265656e2066726f7a656e60008301527f21000000000000000000000000000000000000000000000000000000000000006020830152604082019050919050565b60006149ae602983615131565b91507f5b4552524f525d204e6f20737563682070617373706f7274206861732062656560008301527f6e206372656174656400000000000000000000000000000000000000000000006020830152604082019050919050565b6000606083016000830151614a1f6000860182613e24565b5060208301518482036020860152614a378282613f16565b9150506040830151614a4c6040860182613d1c565b508091505092915050565b606082016000820151614a6d6000850182613e24565b506020820151614a806020850182614ae9565b506040820151614a936040850182613d1c565b50505050565b6000606083016000830151614ab16000860182613d1c565b5060208301518482036020860152614ac98282613f16565b9150506040830151614ade6040860182614ae9565b508091505092915050565b614af2816151c9565b82525050565b614b01816151c9565b82525050565b6000614b138284613e7b565b915081905092915050565b6000614b2a8284613ee5565b915081905092915050565b6000614b418285613f4f565b9150614b4d8284613ee5565b91508190509392505050565b6000602082019050614b6e6000830184613d2b565b92915050565b6000608082019050614b896000830187613d0d565b614b966020830186613d2b565b614ba36040830185614af8565b8181036060830152614bb58184613e42565b905095945050505050565b60006020820190508181036000830152614bda8184613d3a565b905092915050565b60006020820190508181036000830152614bfc8184613daf565b905092915050565b6000602082019050614c196000830184613e33565b92915050565b60006020820190508181036000830152614c398184613eac565b905092915050565b60006020820190508181036000830152614c5a81613fdd565b9050919050565b60006020820190508181036000830152614c7a8161401d565b9050919050565b60006020820190508181036000830152614c9a81614083565b9050919050565b60006020820190508181036000830152614cba816140e9565b9050919050565b60006020820190508181036000830152614cda81614129565b9050919050565b60006020820190508181036000830152614cfa8161418f565b9050919050565b60006020820190508181036000830152614d1a816141f5565b9050919050565b60006020820190508181036000830152614d3a81614235565b9050919050565b60006020820190508181036000830152614d5a8161429b565b9050919050565b60006020820190508181036000830152614d7a81614301565b9050919050565b60006020820190508181036000830152614d9a81614367565b9050919050565b60006020820190508181036000830152614dba816143cd565b9050919050565b60006020820190508181036000830152614dda81614433565b9050919050565b60006020820190508181036000830152614dfa81614499565b9050919050565b60006020820190508181036000830152614e1a816144ff565b9050919050565b60006020820190508181036000830152614e3a81614565565b9050919050565b60006020820190508181036000830152614e5a816145a5565b9050919050565b60006020820190508181036000830152614e7a8161460b565b9050919050565b60006020820190508181036000830152614e9a81614671565b9050919050565b60006020820190508181036000830152614eba816146d7565b9050919050565b60006020820190508181036000830152614eda8161473d565b9050919050565b60006020820190508181036000830152614efa816147a3565b9050919050565b60006020820190508181036000830152614f1a81614809565b9050919050565b60006020820190508181036000830152614f3a8161486f565b9050919050565b60006020820190508181036000830152614f5a816148d5565b9050919050565b60006020820190508181036000830152614f7a8161493b565b9050919050565b60006020820190508181036000830152614f9a816149a1565b9050919050565b6000606082019050614fb66000830184614a57565b92915050565b6000602082019050614fd16000830184614af8565b92915050565b6000604051905081810181811067ffffffffffffffff82111715614ffa57600080fd5b8060405250919050565b600067ffffffffffffffff82111561501b57600080fd5b601f19601f8301169050602081019050919050565b600067ffffffffffffffff82111561504757600080fd5b601f19601f8301169050602081019050919050565b6000819050602082019050919050565b6000819050602082019050919050565b60008190508160005260206000209050919050565b600081519050919050565b600081519050919050565b600081519050919050565b600081519050919050565b600081519050919050565b6000602082019050919050565b6000602082019050919050565b600082825260208201905092915050565b600082825260208201905092915050565b600082825260208201905092915050565b600081905092915050565b600082825260208201905092915050565b600082825260208201905092915050565b600081905092915050565b6000615158826151a9565b9050919050565b600061516a826151a9565b9050919050565b60008115159050919050565b60007fffffffff0000000000000000000000000000000000000000000000000000000082169050919050565b600073ffffffffffffffffffffffffffffffffffffffff82169050919050565b6000819050919050565b82818337600083830152505050565b60005b838110156152005780820151818401526020810190506151e5565b8381111561520f576000848401525b50505050565b6000601f19601f8301169050919050565b61522f8161514d565b811461523a57600080fd5b50565b61524681615171565b811461525157600080fd5b50565b61525d8161517d565b811461526857600080fd5b50565b615274816151c9565b811461527f57600080fd5b5056fea365627a7a72315820c10f9bd25ea3d22ff57778ecdad4839d09541dddcb2b7a6eef72b194c45435f56c6578706572696d656e74616cf564736f6c63430005100040",
  "source": "pragma solidity ^0.5.0;\r\npragma experimental ABIEncoderV2;\r\n\r\nimport \"@openzeppelin/contracts/token/ERC721/ERC721Full.sol\";\r\nimport \"@openzeppelin/contracts/token/ERC721/ERC721Mintable.sol\";\r\nimport \"@openzeppelin/contracts/access/roles/MinterRole.sol\";\r\n\r\n\r\ncontract Passport is ERC721Full, ERC721Mintable {\r\n    address internal _owner;\r\n\r\n    constructor() public ERC721Full(\"Passport\", \"PASS\") {\r\n        _owner = msg.sender;\r\n    }\r\n\r\n    struct Country {\r\n        bool isVerifiedCountry;\r\n        string countryCode;\r\n        address countryAddress;\r\n    }\r\n\r\n    struct TravelAction {\r\n        address destination;\r\n        string movement;\r\n        uint256 datetime;\r\n    }\r\n\r\n    struct PassportToken {\r\n        bool isActive;\r\n        uint256 travelRecordLength;\r\n        address issuingCountry;\r\n    }\r\n\r\n    mapping(address => Country) internal countryList;\r\n    mapping(uint256 => address) internal countryId;\r\n    uint256 numRegCountries = 0;\r\n\r\n    //Eg; SG123 to index 1 of passportTokenList\r\n    mapping(string => uint256) internal passportUUIDMapping;\r\n    mapping(string => TravelAction[]) travelRecords;\r\n    PassportToken[] internal passportTokenList;\r\n\r\n    event countryRegistrationSuccess(string countryCode);\r\n    event passportCreationSuccess(string UUID);\r\n    event travelRecordAdditionSuccess(string UUID);\r\n    event freezePassportSuccess(string UUID);\r\n\r\n    function registerCountry(address country, string memory countryCode)\r\n        public\r\n        onlyOwner() // Need to change to admin, so there's list of admin instead of just owner. Refer to WhitelistAdminRole.sol\r\n    {\r\n        countryList[country] = Country(true, countryCode, country);\r\n        addMinter(country);\r\n        numRegCountries++;\r\n        countryId[numRegCountries] = country; //avoiding index 0\r\n        emit countryRegistrationSuccess(countryCode);\r\n    }\r\n\r\n    function createPassport(string memory UUID) public onlyVerifiedCountry() {\r\n        require(\r\n            passportUUIDMapping[UUID] == 0,\r\n            \"[ERROR] A passport with this UUID has already been created\"\r\n        );\r\n        PassportToken memory _newPassport;\r\n        _newPassport.isActive = true;\r\n        _newPassport.travelRecordLength = 0;\r\n        _newPassport.issuingCountry = msg.sender;\r\n\r\n        uint256 _passportId = passportTokenList.push(_newPassport);\r\n        passportUUIDMapping[UUID] = _passportId;\r\n        _mint(msg.sender, _passportId);\r\n        emit passportCreationSuccess(UUID);\r\n    }\r\n\r\n    function addTravelRecord(\r\n        string memory UUID,\r\n        string memory movement,\r\n        uint256 timestamp\r\n    ) public onlyVerifiedCountry() {\r\n        require(\r\n            passportUUIDMapping[UUID] != 0,\r\n            \"[ERROR] No such passport has been created\"\r\n        );\r\n        uint256 _passportId = passportUUIDMapping[UUID] - 1;\r\n        PassportToken memory passportToView = passportTokenList[_passportId];\r\n        require(\r\n            passportToView.isActive == true,\r\n            \"[ERROR] Passport has been frozen!\"\r\n        );\r\n        TravelAction memory _newRecord;\r\n        _newRecord.destination = msg.sender;\r\n        _newRecord.movement = movement;\r\n        _newRecord.datetime = timestamp;\r\n\r\n        travelRecords[UUID].push(_newRecord);\r\n        uint256 newTravelRecordLength = passportToView.travelRecordLength + 1;\r\n        passportToView.travelRecordLength = newTravelRecordLength;\r\n        passportTokenList[_passportId] = passportToView;\r\n        emit travelRecordAdditionSuccess(UUID);\r\n    }\r\n\r\n    function freezePassport(string memory UUID)\r\n        public\r\n        onlyIssuingCountry(UUID)\r\n    {\r\n        uint256 _passportId = passportUUIDMapping[UUID] - 1;\r\n        PassportToken memory passportToFreeze = passportTokenList[_passportId];\r\n        passportToFreeze.isActive = false;\r\n        passportTokenList[_passportId] = passportToFreeze;\r\n        emit freezePassportSuccess(UUID);\r\n    }\r\n\r\n    function viewPassportTravelRecords(string memory UUID)\r\n        public\r\n        view\r\n        returns (TravelAction[] memory)\r\n    {\r\n        require(\r\n            passportUUIDMapping[UUID] != 0,\r\n            \"[ERROR] No such passport has been created\"\r\n        );\r\n        uint256 _passportId = passportUUIDMapping[UUID] - 1;\r\n        PassportToken memory passportToView = passportTokenList[_passportId];\r\n        require(\r\n            passportToView.isActive == true,\r\n            \"[ERROR] Passport has been frozen!\"\r\n        );\r\n        return travelRecords[UUID];\r\n    }\r\n\r\n    function viewPassport(string memory UUID)\r\n        public\r\n        view\r\n        returns (PassportToken memory)\r\n    {\r\n        require(\r\n            passportUUIDMapping[UUID] != 0,\r\n            \"[ERROR] No such passport has been created\"\r\n        );\r\n        uint256 _passportId = passportUUIDMapping[UUID] - 1;\r\n        PassportToken memory passportToView = passportTokenList[_passportId];\r\n        return passportToView;\r\n    }\r\n\r\n    function viewRegisteredCountry(address countryAddress)\r\n        public\r\n        view\r\n        returns (string memory)\r\n    {\r\n        require(\r\n            countryList[countryAddress].isVerifiedCountry == true,\r\n            \"[ERROR] No such country has been registered\"\r\n        );\r\n        return countryList[countryAddress].countryCode;\r\n    }\r\n\r\n    function checkVerifiedCountry(address countryAddress)\r\n        public\r\n        view\r\n        returns (bool)\r\n    {\r\n        return countryList[countryAddress].isVerifiedCountry;\r\n    }\r\n\r\n    function viewRegisteredCountryList()\r\n        public\r\n        view\r\n        returns (Country[] memory)\r\n    {\r\n        Country[] memory ret = new Country[](numRegCountries);\r\n        for (uint256 i = 0; i < numRegCountries; i++) {\r\n            address countryAdd = countryId[i + 1];\r\n            ret[i] = countryList[countryAdd];\r\n        }\r\n        return ret;\r\n    }\r\n\r\n    //access modifier functions\r\n    modifier onlyOwner() {\r\n        require(msg.sender == _owner, \"[INVALID PERMISSION] Owner Required\");\r\n        _;\r\n    }\r\n\r\n    modifier onlyVerifiedCountry() {\r\n        require(\r\n            countryList[msg.sender].isVerifiedCountry,\r\n            \"[INVALID PERMISSION] Verified Country Required\"\r\n        );\r\n        _;\r\n    }\r\n\r\n    modifier onlyApproved(string memory UUID) {\r\n        require(\r\n            getApproved(passportUUIDMapping[UUID]) == msg.sender,\r\n            \"[INVALID PERMISSION] Approved Sender Required\"\r\n        );\r\n        _;\r\n    }\r\n\r\n    modifier onlyIssuingCountry(string memory UUID) {\r\n        require(\r\n            passportTokenList[passportUUIDMapping[UUID] - 1].issuingCountry ==\r\n                msg.sender,\r\n            \"[INVALID PERMISSION] Passport Token Issuing Country Required\"\r\n        );\r\n        _;\r\n    }\r\n\r\n    modifier onlyOwnerCountry(string memory UUID) {\r\n        require(\r\n            ownerOf(passportUUIDMapping[UUID]) == msg.sender,\r\n            \"[INVALID PERMISSION] Passport Token Owner Required\"\r\n        );\r\n        _;\r\n    }\r\n}\r\n",
  "sourcePath": "C:\\Users\\Lim Shan Jing\\Desktop\\IS4302\\cryptyPassta\\src\\blockchain\\contracts\\Passport.sol",
  "compiler": {
    "name": "solc",
    "version": "0.5.16+commit.9c3226ce.Emscripten.clang"
  },
  "schemaVersion": "3.0.23",
  "updatedAt": "2020-04-05T06:21:41.798Z",
  "networkType": "ethereum",
  "devdoc": {
    "methods": {
      "approve(address,uint256)": {
        "details": "Approves another address to transfer the given token ID The zero address indicates there is no approved address. There can only be one approved address per token at a given time. Can only be called by the token owner or an approved operator.",
        "params": {
          "to": "address to be approved for the given token ID",
          "tokenId": "uint256 ID of the token to be approved"
        }
      },
      "balanceOf(address)": {
        "details": "Gets the balance of the specified address.",
        "params": {
          "owner": "address to query the balance of"
        },
        "return": "uint256 representing the amount owned by the passed address"
      },
      "baseURI()": {
        "details": "Returns the base URI set via {_setBaseURI}. This will be automatically added as a preffix in {tokenURI} to each token's URI, when they are non-empty.    * _Available since v2.5.0._"
      },
      "getApproved(uint256)": {
        "details": "Gets the approved address for a token ID, or zero if no address set Reverts if the token ID does not exist.",
        "params": {
          "tokenId": "uint256 ID of the token to query the approval of"
        },
        "return": "address currently approved for the given token ID"
      },
      "isApprovedForAll(address,address)": {
        "details": "Tells whether an operator is approved by a given owner.",
        "params": {
          "operator": "operator address which you want to query the approval of",
          "owner": "owner address which you want to query the approval of"
        },
        "return": "bool whether the given operator is approved by the given owner"
      },
      "mint(address,uint256)": {
        "details": "Function to mint tokens.",
        "params": {
          "to": "The address that will receive the minted token.",
          "tokenId": "The token id to mint."
        },
        "return": "A boolean that indicates if the operation was successful."
      },
      "name()": {
        "details": "Gets the token name.",
        "return": "string representing the token name"
      },
      "ownerOf(uint256)": {
        "details": "Gets the owner of the specified token ID.",
        "params": {
          "tokenId": "uint256 ID of the token to query the owner of"
        },
        "return": "address currently marked as the owner of the given token ID"
      },
      "safeMint(address,uint256)": {
        "details": "Function to safely mint tokens.",
        "params": {
          "to": "The address that will receive the minted token.",
          "tokenId": "The token id to mint."
        },
        "return": "A boolean that indicates if the operation was successful."
      },
      "safeMint(address,uint256,bytes)": {
        "details": "Function to safely mint tokens.",
        "params": {
          "_data": "bytes data to send along with a safe transfer check.",
          "to": "The address that will receive the minted token.",
          "tokenId": "The token id to mint."
        },
        "return": "A boolean that indicates if the operation was successful."
      },
      "safeTransferFrom(address,address,uint256)": {
        "details": "Safely transfers the ownership of a given token ID to another address If the target address is a contract, it must implement {IERC721Receiver-onERC721Received}, which is called upon a safe transfer, and return the magic value `bytes4(keccak256(\"onERC721Received(address,address,uint256,bytes)\"))`; otherwise, the transfer is reverted. Requires the msg.sender to be the owner, approved, or operator",
        "params": {
          "from": "current owner of the token",
          "to": "address to receive the ownership of the given token ID",
          "tokenId": "uint256 ID of the token to be transferred"
        }
      },
      "safeTransferFrom(address,address,uint256,bytes)": {
        "details": "Safely transfers the ownership of a given token ID to another address If the target address is a contract, it must implement {IERC721Receiver-onERC721Received}, which is called upon a safe transfer, and return the magic value `bytes4(keccak256(\"onERC721Received(address,address,uint256,bytes)\"))`; otherwise, the transfer is reverted. Requires the _msgSender() to be the owner, approved, or operator",
        "params": {
          "_data": "bytes data to send along with a safe transfer check",
          "from": "current owner of the token",
          "to": "address to receive the ownership of the given token ID",
          "tokenId": "uint256 ID of the token to be transferred"
        }
      },
      "setApprovalForAll(address,bool)": {
        "details": "Sets or unsets the approval of a given operator An operator is allowed to transfer all tokens of the sender on their behalf.",
        "params": {
          "approved": "representing the status of the approval to be set",
          "to": "operator address to set the approval"
        }
      },
      "supportsInterface(bytes4)": {
        "details": "See {IERC165-supportsInterface}.     * Time complexity O(1), guaranteed to always use less than 30 000 gas."
      },
      "symbol()": {
        "details": "Gets the token symbol.",
        "return": "string representing the token symbol"
      },
      "tokenByIndex(uint256)": {
        "details": "Gets the token ID at a given index of all the tokens in this contract Reverts if the index is greater or equal to the total number of tokens.",
        "params": {
          "index": "uint256 representing the index to be accessed of the tokens list"
        },
        "return": "uint256 token ID at the given index of the tokens list"
      },
      "tokenOfOwnerByIndex(address,uint256)": {
        "details": "Gets the token ID at a given index of the tokens list of the requested owner.",
        "params": {
          "index": "uint256 representing the index to be accessed of the requested tokens list",
          "owner": "address owning the tokens list to be accessed"
        },
        "return": "uint256 token ID at the given index of the tokens list owned by the requested address"
      },
      "tokenURI(uint256)": {
        "details": "Returns the URI for a given token ID. May return an empty string.     * If the token's URI is non-empty and a base URI was set (via {_setBaseURI}), it will be added to the token ID's URI as a prefix.     * Reverts if the token ID does not exist."
      },
      "totalSupply()": {
        "details": "Gets the total amount of tokens stored by the contract.",
        "return": "uint256 representing the total amount of tokens"
      },
      "transferFrom(address,address,uint256)": {
        "details": "Transfers the ownership of a given token ID to another address. Usage of this method is discouraged, use {safeTransferFrom} whenever possible. Requires the msg.sender to be the owner, approved, or operator.",
        "params": {
          "from": "current owner of the token",
          "to": "address to receive the ownership of the given token ID",
          "tokenId": "uint256 ID of the token to be transferred"
        }
      }
    }
  },
  "userdoc": {
    "methods": {}
  }
}